{
  "contractName": "Test",
  "abi": [
    {
      "inputs": [
        {
          "internalType": "address",
          "name": "_verifier",
          "type": "address"
        }
      ],
      "payable": false,
      "stateMutability": "nonpayable",
      "type": "constructor"
    },
    {
      "constant": true,
      "inputs": [],
      "name": "verifier",
      "outputs": [
        {
          "internalType": "address",
          "name": "",
          "type": "address"
        }
      ],
      "payable": false,
      "stateMutability": "view",
      "type": "function"
    },
    {
      "constant": false,
      "inputs": [
        {
          "internalType": "uint256[2]",
          "name": "a",
          "type": "uint256[2]"
        },
        {
          "internalType": "uint256[2][2]",
          "name": "b",
          "type": "uint256[2][2]"
        },
        {
          "internalType": "uint256[2]",
          "name": "c",
          "type": "uint256[2]"
        },
        {
          "internalType": "uint256[3]",
          "name": "input",
          "type": "uint256[3]"
        }
      ],
      "name": "verify",
      "outputs": [
        {
          "internalType": "bool",
          "name": "",
          "type": "bool"
        }
      ],
      "payable": false,
      "stateMutability": "nonpayable",
      "type": "function"
    },
    {
      "constant": false,
      "inputs": [
        {
          "internalType": "uint256",
          "name": "_secret",
          "type": "uint256"
        }
      ],
      "name": "store",
      "outputs": [],
      "payable": false,
      "stateMutability": "nonpayable",
      "type": "function"
    },
    {
      "constant": true,
      "inputs": [
        {
          "internalType": "uint256",
          "name": "a",
          "type": "uint256"
        },
        {
          "internalType": "uint256",
          "name": "b",
          "type": "uint256"
        }
      ],
      "name": "check",
      "outputs": [
        {
          "internalType": "bool",
          "name": "",
          "type": "bool"
        }
      ],
      "payable": false,
      "stateMutability": "view",
      "type": "function"
    }
  ],
  "bytecode": "0x608060405234801561001057600080fd5b506040516105c83803806105c88339818101604052602081101561003357600080fd5b8101908080519060200190929190505050806000806101000a81548173ffffffffffffffffffffffffffffffffffffffff021916908373ffffffffffffffffffffffffffffffffffffffff1602179055506000809054906101000a900473ffffffffffffffffffffffffffffffffffffffff16600260006101000a81548173ffffffffffffffffffffffffffffffffffffffff021916908373ffffffffffffffffffffffffffffffffffffffff160217905550506104d2806100f66000396000f3fe608060405234801561001057600080fd5b506004361061004c5760003560e01c80632b7ac3f3146100515780636057361d1461009b5780638fefd8ea146100c9578063b9e1472b14610119575b600080fd5b610059610292565b604051808273ffffffffffffffffffffffffffffffffffffffff1673ffffffffffffffffffffffffffffffffffffffff16815260200191505060405180910390f35b6100c7600480360360208110156100b157600080fd5b81019080803590602001909291905050506102b7565b005b6100ff600480360360408110156100df57600080fd5b8101908080359060200190929190803590602001909291905050506102c1565b604051808215151515815260200191505060405180910390f35b610278600480360361016081101561013057600080fd5b8101908080604001906002806020026040519081016040528092919082600260200280828437600081840152601f19601f82011690508083019250505050505091929192908060800190600280602002604051908101604052809291906000905b828210156101e5578382604002016002806020026040519081016040528092919082600260200280828437600081840152601f19601f82011690508083019250505050505081526020019060010190610191565b50505050919291929080604001906002806020026040519081016040528092919082600260200280828437600081840152601f19601f820116905080830192505050505050919291929080606001906003806020026040519081016040528092919082600360200280828437600081840152601f19601f8201169050808301925050505050509192919290505050610306565b604051808215151515815260200191505060405180910390f35b6000809054906101000a900473ffffffffffffffffffffffffffffffffffffffff1681565b8060018190555050565b60008083905070010000000000000000000000000000000081029050600083821690506001548114156102f957600192505050610300565b6000925050505b92915050565b6000600260009054906101000a900473ffffffffffffffffffffffffffffffffffffffff1673ffffffffffffffffffffffffffffffffffffffff1663415df87c868686866040518563ffffffff1660e01b81526004018085600260200280838360005b83811015610384578082015181840152602081019050610369565b505050509050018460026000925b818410156103d85782846020020151600260200280838360005b838110156103c75780820151818401526020810190506103ac565b505050509050019260010192610392565b9250505083600260200280838360005b838110156104035780820151818401526020810190506103e8565b5050505090500182600360200280838360005b83811015610431578082015181840152602081019050610416565b50505050905001945050505050602060405180830381600087803b15801561045857600080fd5b505af115801561046c573d6000803e3d6000fd5b505050506040513d602081101561048257600080fd5b8101908080519060200190929190505050905094935050505056fea265627a7a7231582017d4de4ceb2229fd04dd039e0cd15f6b1ae0479383207bdad26a43d1fbbb01fe64736f6c63430005100032",
  "source": "pragma solidity ^0.5.0;\n\nimport './secretVerifier.sol';\n\ncontract Test {\n  address public verifier;\n  uint256 secret;\n  SecretVerifier verifierContract;\n\n  constructor(address _verifier) public {\n    verifier = _verifier;\n    verifierContract = SecretVerifier(verifier);\n  }\n\n  function verify(uint[2] memory a,\n            uint[2][2] memory b,\n            uint[2] memory c,\n            uint[3] memory input) public returns (bool) {\n    \n    return verifierContract.verifyTx(a, b, c, input);\n\n  }\n\n  function store(uint256 _secret) public {\n        secret = _secret;\n    }\n\n\n    function check(uint256 a, uint256 b) public view returns (bool){\n        \n        uint256 a1 = a;\n        a1 = a1 * 2**128;\n        uint256 c = a1 & b;\n        if(c==secret){\n            return true;\n        }\n        else{\n            return false;\n        }\n    }\n}\n\n",
  "sourcePath": "/home/akash/Videos/Private-delegation-Maker-Governance/zk_library/verify/contracts/test.sol",
  "compiler": {
    "name": "solc",
    "version": "0.5.16+commit.9c3226ce.Emscripten.clang"
  },
  "schemaVersion": "3.0.23",
  "updatedAt": "2020-06-24T18:00:23.807Z",
  "networkType": "ethereum",
  "devdoc": {
    "methods": {}
  },
  "userdoc": {
    "methods": {}
  }
}