{
  "contractName": "DSChiefApprovals",
  "abi": [
    {
      "inputs": [
        {
          "internalType": "contract DSToken",
          "name": "GOV_",
          "type": "address"
        },
        {
          "internalType": "contract DSToken",
          "name": "IOU_",
          "type": "address"
        },
        {
          "internalType": "uint256",
          "name": "MAX_YAYS_",
          "type": "uint256"
        }
      ],
      "payable": false,
      "stateMutability": "nonpayable",
      "type": "constructor"
    },
    {
      "anonymous": false,
      "inputs": [
        {
          "indexed": true,
          "internalType": "bytes32",
          "name": "slate",
          "type": "bytes32"
        }
      ],
      "name": "Etch",
      "type": "event"
    },
    {
      "anonymous": true,
      "inputs": [
        {
          "indexed": true,
          "internalType": "bytes4",
          "name": "sig",
          "type": "bytes4"
        },
        {
          "indexed": true,
          "internalType": "address",
          "name": "guy",
          "type": "address"
        },
        {
          "indexed": true,
          "internalType": "bytes32",
          "name": "foo",
          "type": "bytes32"
        },
        {
          "indexed": true,
          "internalType": "bytes32",
          "name": "bar",
          "type": "bytes32"
        },
        {
          "indexed": false,
          "internalType": "uint256",
          "name": "wad",
          "type": "uint256"
        },
        {
          "indexed": false,
          "internalType": "bytes",
          "name": "fax",
          "type": "bytes"
        }
      ],
      "name": "LogNote",
      "type": "event"
    },
    {
      "anonymous": false,
      "inputs": [
        {
          "indexed": true,
          "internalType": "address",
          "name": "authority",
          "type": "address"
        }
      ],
      "name": "LogSetAuthority",
      "type": "event"
    },
    {
      "anonymous": false,
      "inputs": [
        {
          "indexed": true,
          "internalType": "address",
          "name": "owner",
          "type": "address"
        }
      ],
      "name": "LogSetOwner",
      "type": "event"
    },
    {
      "constant": true,
      "inputs": [],
      "name": "GOV",
      "outputs": [
        {
          "internalType": "contract DSToken",
          "name": "",
          "type": "address"
        }
      ],
      "payable": false,
      "stateMutability": "view",
      "type": "function"
    },
    {
      "constant": true,
      "inputs": [],
      "name": "IOU",
      "outputs": [
        {
          "internalType": "contract DSToken",
          "name": "",
          "type": "address"
        }
      ],
      "payable": false,
      "stateMutability": "view",
      "type": "function"
    },
    {
      "constant": true,
      "inputs": [],
      "name": "MAX_YAYS",
      "outputs": [
        {
          "internalType": "uint256",
          "name": "",
          "type": "uint256"
        }
      ],
      "payable": false,
      "stateMutability": "view",
      "type": "function"
    },
    {
      "constant": true,
      "inputs": [
        {
          "internalType": "address",
          "name": "",
          "type": "address"
        }
      ],
      "name": "approvals",
      "outputs": [
        {
          "internalType": "uint256",
          "name": "",
          "type": "uint256"
        }
      ],
      "payable": false,
      "stateMutability": "view",
      "type": "function"
    },
    {
      "constant": true,
      "inputs": [],
      "name": "authority",
      "outputs": [
        {
          "internalType": "contract DSAuthority",
          "name": "",
          "type": "address"
        }
      ],
      "payable": false,
      "stateMutability": "view",
      "type": "function"
    },
    {
      "constant": true,
      "inputs": [
        {
          "internalType": "address",
          "name": "",
          "type": "address"
        }
      ],
      "name": "deposits",
      "outputs": [
        {
          "internalType": "uint256",
          "name": "",
          "type": "uint256"
        }
      ],
      "payable": false,
      "stateMutability": "view",
      "type": "function"
    },
    {
      "constant": true,
      "inputs": [],
      "name": "hat",
      "outputs": [
        {
          "internalType": "address",
          "name": "",
          "type": "address"
        }
      ],
      "payable": false,
      "stateMutability": "view",
      "type": "function"
    },
    {
      "constant": true,
      "inputs": [],
      "name": "owner",
      "outputs": [
        {
          "internalType": "address",
          "name": "",
          "type": "address"
        }
      ],
      "payable": false,
      "stateMutability": "view",
      "type": "function"
    },
    {
      "constant": false,
      "inputs": [
        {
          "internalType": "contract DSAuthority",
          "name": "authority_",
          "type": "address"
        }
      ],
      "name": "setAuthority",
      "outputs": [],
      "payable": false,
      "stateMutability": "nonpayable",
      "type": "function"
    },
    {
      "constant": false,
      "inputs": [
        {
          "internalType": "address",
          "name": "owner_",
          "type": "address"
        }
      ],
      "name": "setOwner",
      "outputs": [],
      "payable": false,
      "stateMutability": "nonpayable",
      "type": "function"
    },
    {
      "constant": true,
      "inputs": [
        {
          "internalType": "bytes32",
          "name": "",
          "type": "bytes32"
        },
        {
          "internalType": "uint256",
          "name": "",
          "type": "uint256"
        }
      ],
      "name": "slates",
      "outputs": [
        {
          "internalType": "address",
          "name": "",
          "type": "address"
        }
      ],
      "payable": false,
      "stateMutability": "view",
      "type": "function"
    },
    {
      "constant": true,
      "inputs": [],
      "name": "verifier",
      "outputs": [
        {
          "internalType": "contract SecretVerifier",
          "name": "",
          "type": "address"
        }
      ],
      "payable": false,
      "stateMutability": "view",
      "type": "function"
    },
    {
      "constant": true,
      "inputs": [],
      "name": "verifierAddress",
      "outputs": [
        {
          "internalType": "address",
          "name": "",
          "type": "address"
        }
      ],
      "payable": false,
      "stateMutability": "view",
      "type": "function"
    },
    {
      "constant": true,
      "inputs": [
        {
          "internalType": "address",
          "name": "",
          "type": "address"
        }
      ],
      "name": "votes",
      "outputs": [
        {
          "internalType": "bytes32",
          "name": "",
          "type": "bytes32"
        }
      ],
      "payable": false,
      "stateMutability": "view",
      "type": "function"
    },
    {
      "constant": false,
      "inputs": [
        {
          "internalType": "address",
          "name": "_verifierAddress",
          "type": "address"
        }
      ],
      "name": "setVerifer",
      "outputs": [],
      "payable": false,
      "stateMutability": "nonpayable",
      "type": "function"
    },
    {
      "constant": false,
      "inputs": [
        {
          "internalType": "uint256",
          "name": "wad",
          "type": "uint256"
        }
      ],
      "name": "lock",
      "outputs": [],
      "payable": false,
      "stateMutability": "nonpayable",
      "type": "function"
    },
    {
      "constant": false,
      "inputs": [
        {
          "internalType": "uint256",
          "name": "wad",
          "type": "uint256"
        }
      ],
      "name": "free",
      "outputs": [],
      "payable": false,
      "stateMutability": "nonpayable",
      "type": "function"
    },
    {
      "constant": false,
      "inputs": [
        {
          "internalType": "address[]",
          "name": "yays",
          "type": "address[]"
        }
      ],
      "name": "etch",
      "outputs": [
        {
          "internalType": "bytes32",
          "name": "slate",
          "type": "bytes32"
        }
      ],
      "payable": false,
      "stateMutability": "nonpayable",
      "type": "function"
    },
    {
      "constant": false,
      "inputs": [
        {
          "internalType": "bytes32",
          "name": "slate",
          "type": "bytes32"
        }
      ],
      "name": "vote",
      "outputs": [],
      "payable": false,
      "stateMutability": "nonpayable",
      "type": "function"
    },
    {
      "constant": false,
      "inputs": [
        {
          "internalType": "address[]",
          "name": "yays",
          "type": "address[]"
        },
        {
          "internalType": "address",
          "name": "delegator",
          "type": "address"
        },
        {
          "internalType": "uint256[2]",
          "name": "a",
          "type": "uint256[2]"
        },
        {
          "internalType": "uint256[2][2]",
          "name": "b",
          "type": "uint256[2][2]"
        },
        {
          "internalType": "uint256[2]",
          "name": "c",
          "type": "uint256[2]"
        },
        {
          "internalType": "uint256[3]",
          "name": "input",
          "type": "uint256[3]"
        }
      ],
      "name": "vote",
      "outputs": [
        {
          "internalType": "bytes32",
          "name": "",
          "type": "bytes32"
        }
      ],
      "payable": false,
      "stateMutability": "nonpayable",
      "type": "function"
    },
    {
      "constant": false,
      "inputs": [
        {
          "internalType": "address[]",
          "name": "yays",
          "type": "address[]"
        }
      ],
      "name": "vote",
      "outputs": [
        {
          "internalType": "bytes32",
          "name": "",
          "type": "bytes32"
        }
      ],
      "payable": false,
      "stateMutability": "nonpayable",
      "type": "function"
    },
    {
      "constant": false,
      "inputs": [
        {
          "internalType": "bytes32",
          "name": "slate",
          "type": "bytes32"
        },
        {
          "internalType": "address",
          "name": "delegator",
          "type": "address"
        },
        {
          "internalType": "uint256[2]",
          "name": "a",
          "type": "uint256[2]"
        },
        {
          "internalType": "uint256[2][2]",
          "name": "b",
          "type": "uint256[2][2]"
        },
        {
          "internalType": "uint256[2]",
          "name": "c",
          "type": "uint256[2]"
        },
        {
          "internalType": "uint256[3]",
          "name": "input",
          "type": "uint256[3]"
        }
      ],
      "name": "vote",
      "outputs": [],
      "payable": false,
      "stateMutability": "nonpayable",
      "type": "function"
    },
    {
      "constant": false,
      "inputs": [
        {
          "internalType": "address",
          "name": "whom",
          "type": "address"
        }
      ],
      "name": "lift",
      "outputs": [],
      "payable": false,
      "stateMutability": "nonpayable",
      "type": "function"
    }
  ],
  "bytecode": "0x608060405234801561001057600080fd5b50604051612a71380380612a718339818101604052606081101561003357600080fd5b8101908080519060200190929190805190602001909291908051906020019092919050505033600160006101000a81548173ffffffffffffffffffffffffffffffffffffffff021916908373ffffffffffffffffffffffffffffffffffffffff1602179055503373ffffffffffffffffffffffffffffffffffffffff167fce241d7ca1f669fee44b6fc00b8eba2df3bb514eed0f6f668f8f89096e81ed9460405160405180910390a282600760006101000a81548173ffffffffffffffffffffffffffffffffffffffff021916908373ffffffffffffffffffffffffffffffffffffffff16021790555081600860006101000a81548173ffffffffffffffffffffffffffffffffffffffff021916908373ffffffffffffffffffffffffffffffffffffffff16021790555080600b819055505050506128fa806101776000396000f3fe608060405234801561001057600080fd5b506004361061014d5760003560e01c8063a69beaba116100c3578063d8ccd0f31161007c578063d8ccd0f314610887578063dd467064146108b5578063ed081329146108e3578063fc7e286d146109af578063fde42f5314610a07578063fe95a5ce14610b925761014d565b8063a69beaba146104d2578063b49aea3814610500578063bf7e214f14610544578063c2ffc7bb1461058e578063cd66715314610606578063d8bff5a51461082f5761014d565b8063362344b811610115578063362344b8146102be5780633c278bd5146102dc5780635123e1fa146103205780635d0341ba146103ec5780637a9e5e4b146104445780638da5cb5b146104885761014d565b8063046c472f1461015257806313af40351461019c578063180cb47f146101e057806318bdffbb1461022a5780632b7ac3f314610274575b600080fd5b61015a610bdc565b604051808273ffffffffffffffffffffffffffffffffffffffff1673ffffffffffffffffffffffffffffffffffffffff16815260200191505060405180910390f35b6101de600480360360208110156101b257600080fd5b81019080803573ffffffffffffffffffffffffffffffffffffffff169060200190929190505050610c02565b005b6101e8610d4b565b604051808273ffffffffffffffffffffffffffffffffffffffff1673ffffffffffffffffffffffffffffffffffffffff16815260200191505060405180910390f35b610232610d71565b604051808273ffffffffffffffffffffffffffffffffffffffff1673ffffffffffffffffffffffffffffffffffffffff16815260200191505060405180910390f35b61027c610d97565b604051808273ffffffffffffffffffffffffffffffffffffffff1673ffffffffffffffffffffffffffffffffffffffff16815260200191505060405180910390f35b6102c6610dbd565b6040518082815260200191505060405180910390f35b61031e600480360360208110156102f257600080fd5b81019080803573ffffffffffffffffffffffffffffffffffffffff169060200190929190505050610dc3565b005b6103d66004803603602081101561033657600080fd5b810190808035906020019064010000000081111561035357600080fd5b82018360208201111561036557600080fd5b8035906020019184602083028401116401000000008311171561038757600080fd5b919080806020026020016040519081016040528093929190818152602001838360200280828437600081840152601f19601f820116905080830192505050505050509192919290505050610f70565b6040518082815260200191505060405180910390f35b61042e6004803603602081101561040257600080fd5b81019080803573ffffffffffffffffffffffffffffffffffffffff1690602001909291905050506110fd565b6040518082815260200191505060405180910390f35b6104866004803603602081101561045a57600080fd5b81019080803573ffffffffffffffffffffffffffffffffffffffff169060200190929190505050611115565b005b61049061125c565b604051808273ffffffffffffffffffffffffffffffffffffffff1673ffffffffffffffffffffffffffffffffffffffff16815260200191505060405180910390f35b6104fe600480360360208110156104e857600080fd5b8101908080359060200190929190505050611282565b005b6105426004803603602081101561051657600080fd5b81019080803573ffffffffffffffffffffffffffffffffffffffff169060200190929190505050611516565b005b61054c6115bd565b604051808273ffffffffffffffffffffffffffffffffffffffff1673ffffffffffffffffffffffffffffffffffffffff16815260200191505060405180910390f35b6105c4600480360360408110156105a457600080fd5b8101908080359060200190929190803590602001909291905050506115e2565b604051808273ffffffffffffffffffffffffffffffffffffffff1673ffffffffffffffffffffffffffffffffffffffff16815260200191505060405180910390f35b61081960048036036101a081101561061d57600080fd5b810190808035906020019064010000000081111561063a57600080fd5b82018360208201111561064c57600080fd5b8035906020019184602083028401116401000000008311171561066e57600080fd5b919080806020026020016040519081016040528093929190818152602001838360200280828437600081840152601f19601f820116905080830192505050505050509192919290803573ffffffffffffffffffffffffffffffffffffffff16906020019092919080604001906002806020026040519081016040528092919082600260200280828437600081840152601f19601f82011690508083019250505050505091929192908060800190600280602002604051908101604052809291906000905b82821015610786578382604002016002806020026040519081016040528092919082600260200280828437600081840152601f19601f82011690508083019250505050505081526020019060010190610732565b50505050919291929080604001906002806020026040519081016040528092919082600260200280828437600081840152601f19601f820116905080830192505050505050919291929080606001906003806020026040519081016040528092919082600360200280828437600081840152601f19601f820116905080830192505050505050919291929050505061162d565b6040518082815260200191505060405180910390f35b6108716004803603602081101561084557600080fd5b81019080803573ffffffffffffffffffffffffffffffffffffffff169060200190929190505050611657565b6040518082815260200191505060405180910390f35b6108b36004803603602081101561089d57600080fd5b810190808035906020019092919050505061166f565b005b6108e1600480360360208110156108cb57600080fd5b8101908080359060200190929190505050611986565b005b610999600480360360208110156108f957600080fd5b810190808035906020019064010000000081111561091657600080fd5b82018360208201111561092857600080fd5b8035906020019184602083028401116401000000008311171561094a57600080fd5b919080806020026020016040519081016040528093929190818152602001838360200280828437600081840152601f19601f820116905080830192505050505050509192919290505050611c9d565b6040518082815260200191505060405180910390f35b6109f1600480360360208110156109c557600080fd5b81019080803573ffffffffffffffffffffffffffffffffffffffff169060200190929190505050611cbd565b6040518082815260200191505060405180910390f35b610b9060048036036101a0811015610a1e57600080fd5b8101908080359060200190929190803573ffffffffffffffffffffffffffffffffffffffff16906020019092919080604001906002806020026040519081016040528092919082600260200280828437600081840152601f19601f82011690508083019250505050505091929192908060800190600280602002604051908101604052809291906000905b82821015610afd578382604002016002806020026040519081016040528092919082600260200280828437600081840152601f19601f82011690508083019250505050505081526020019060010190610aa9565b50505050919291929080604001906002806020026040519081016040528092919082600260200280828437600081840152601f19601f820116905080830192505050505050919291929080606001906003806020026040519081016040528092919082600360200280828437600081840152601f19601f8201169050808301925050505050509192919290505050611cd5565b005b610b9a61216b565b604051808273ffffffffffffffffffffffffffffffffffffffff1673ffffffffffffffffffffffffffffffffffffffff16815260200191505060405180910390f35b600860009054906101000a900473ffffffffffffffffffffffffffffffffffffffff1681565b610c30336000357fffffffff0000000000000000000000000000000000000000000000000000000016612191565b610ca2576040517f08c379a00000000000000000000000000000000000000000000000000000000081526004018080602001828103825260148152602001807f64732d617574682d756e617574686f72697a656400000000000000000000000081525060200191505060405180910390fd5b80600160006101000a81548173ffffffffffffffffffffffffffffffffffffffff021916908373ffffffffffffffffffffffffffffffffffffffff160217905550600160009054906101000a900473ffffffffffffffffffffffffffffffffffffffff1673ffffffffffffffffffffffffffffffffffffffff167fce241d7ca1f669fee44b6fc00b8eba2df3bb514eed0f6f668f8f89096e81ed9460405160405180910390a250565b600760009054906101000a900473ffffffffffffffffffffffffffffffffffffffff1681565b600a60009054906101000a900473ffffffffffffffffffffffffffffffffffffffff1681565b600660009054906101000a900473ffffffffffffffffffffffffffffffffffffffff1681565b600b5481565b60008060006004359250602435915034905060046000600960009054906101000a900473ffffffffffffffffffffffffffffffffffffffff1673ffffffffffffffffffffffffffffffffffffffff1673ffffffffffffffffffffffffffffffffffffffff16815260200190815260200160002054600460008673ffffffffffffffffffffffffffffffffffffffff1673ffffffffffffffffffffffffffffffffffffffff1681526020019081526020016000205411610e8157600080fd5b83600960006101000a81548173ffffffffffffffffffffffffffffffffffffffff021916908373ffffffffffffffffffffffffffffffffffffffff16021790555081833373ffffffffffffffffffffffffffffffffffffffff166000357fffffffff00000000000000000000000000000000000000000000000000000000167bffffffffffffffffffffffffffffffffffffffffffffffffffffffff19168460003660405180848152602001806020018281038252848482818152602001925080828437600081840152601f19601f82011690508083019250505094505050505060405180910390a450505050565b60008060008060043592506024359150349050600b5485511115610f9357600080fd5b610f9c856123ea565b60008560405160200180828051906020019060200280838360005b83811015610fd2578082015181840152602081019050610fb7565b505050509050019150506040516020818303038152906040528051906020012090508560026000838152602001908152602001600020908051906020019061101b9291906127f8565b50807f4f0892983790f53eea39a7a496f6cb40e8811b313871337b6a761efc6c67bb1f60405160405180910390a28094505081833373ffffffffffffffffffffffffffffffffffffffff166000357fffffffff00000000000000000000000000000000000000000000000000000000167bffffffffffffffffffffffffffffffffffffffffffffffffffffffff19168460003660405180848152602001806020018281038252848482818152602001925080828437600081840152601f19601f82011690508083019250505094505050505060405180910390a4505050919050565b60046020528060005260406000206000915090505481565b611143336000357fffffffff0000000000000000000000000000000000000000000000000000000016612191565b6111b5576040517f08c379a00000000000000000000000000000000000000000000000000000000081526004018080602001828103825260148152602001807f64732d617574682d756e617574686f72697a656400000000000000000000000081525060200191505060405180910390fd5b806000806101000a81548173ffffffffffffffffffffffffffffffffffffffff021916908373ffffffffffffffffffffffffffffffffffffffff1602179055506000809054906101000a900473ffffffffffffffffffffffffffffffffffffffff1673ffffffffffffffffffffffffffffffffffffffff167f1abebea81bfa2637f28358c371278fb15ede7ea8dd28d2e03b112ff6d936ada460405160405180910390a250565b600160009054906101000a900473ffffffffffffffffffffffffffffffffffffffff1681565b6000806000600435925060243591503490506000600260008681526020019081526020016000208054905011806112db57507fc5d2460186f7233c927e7db2dcc703c0e500b653ca82273b7bfad8045d85a47060001b84145b61134d576040517f08c379a00000000000000000000000000000000000000000000000000000000081526004018080602001828103825260168152602001807f64732d63686965662d696e76616c69642d736c6174650000000000000000000081525060200191505060405180910390fd5b6000600560003373ffffffffffffffffffffffffffffffffffffffff1673ffffffffffffffffffffffffffffffffffffffff1681526020019081526020016000205490506113da81600360003373ffffffffffffffffffffffffffffffffffffffff1673ffffffffffffffffffffffffffffffffffffffff1681526020019081526020016000205461248a565b84600360003373ffffffffffffffffffffffffffffffffffffffff1673ffffffffffffffffffffffffffffffffffffffff1681526020019081526020016000208190555061146781600360003373ffffffffffffffffffffffffffffffffffffffff1673ffffffffffffffffffffffffffffffffffffffff168152602001908152602001600020546125be565b5081833373ffffffffffffffffffffffffffffffffffffffff166000357fffffffff00000000000000000000000000000000000000000000000000000000167bffffffffffffffffffffffffffffffffffffffffffffffffffffffff19168460003660405180848152602001806020018281038252848482818152602001925080828437600081840152601f19601f82011690508083019250505094505050505060405180910390a450505050565b80600a60006101000a81548173ffffffffffffffffffffffffffffffffffffffff021916908373ffffffffffffffffffffffffffffffffffffffff160217905550600a60009054906101000a900473ffffffffffffffffffffffffffffffffffffffff16600660006101000a81548173ffffffffffffffffffffffffffffffffffffffff021916908373ffffffffffffffffffffffffffffffffffffffff16021790555050565b6000809054906101000a900473ffffffffffffffffffffffffffffffffffffffff1681565b600260205281600052604060002081815481106115fb57fe5b906000526020600020016000915091509054906101000a900473ffffffffffffffffffffffffffffffffffffffff1681565b60008061163988610f70565b9050611649818888888888611cd5565b809150509695505050505050565b60036020528060005260406000206000915090505481565b6000806000600435925060243591503490506116ca600560003373ffffffffffffffffffffffffffffffffffffffff1673ffffffffffffffffffffffffffffffffffffffff16815260200190815260200160002054856126f2565b600560003373ffffffffffffffffffffffffffffffffffffffff1673ffffffffffffffffffffffffffffffffffffffff1681526020019081526020016000208190555061175684600360003373ffffffffffffffffffffffffffffffffffffffff1673ffffffffffffffffffffffffffffffffffffffff1681526020019081526020016000205461248a565b600860009054906101000a900473ffffffffffffffffffffffffffffffffffffffff1673ffffffffffffffffffffffffffffffffffffffff16639dc29fac33866040518363ffffffff1660e01b8152600401808373ffffffffffffffffffffffffffffffffffffffff1673ffffffffffffffffffffffffffffffffffffffff16815260200182815260200192505050600060405180830381600087803b1580156117ff57600080fd5b505af1158015611813573d6000803e3d6000fd5b50505050600760009054906101000a900473ffffffffffffffffffffffffffffffffffffffff1673ffffffffffffffffffffffffffffffffffffffff1663b753a98c33866040518363ffffffff1660e01b8152600401808373ffffffffffffffffffffffffffffffffffffffff1673ffffffffffffffffffffffffffffffffffffffff16815260200182815260200192505050600060405180830381600087803b1580156118c057600080fd5b505af11580156118d4573d6000803e3d6000fd5b5050505081833373ffffffffffffffffffffffffffffffffffffffff166000357fffffffff00000000000000000000000000000000000000000000000000000000167bffffffffffffffffffffffffffffffffffffffffffffffffffffffff19168460003660405180848152602001806020018281038252848482818152602001925080828437600081840152601f19601f82011690508083019250505094505050505060405180910390a450505050565b600080600060043592506024359150349050600760009054906101000a900473ffffffffffffffffffffffffffffffffffffffff1673ffffffffffffffffffffffffffffffffffffffff1663f2d5d56b33866040518363ffffffff1660e01b8152600401808373ffffffffffffffffffffffffffffffffffffffff1673ffffffffffffffffffffffffffffffffffffffff16815260200182815260200192505050600060405180830381600087803b158015611a4157600080fd5b505af1158015611a55573d6000803e3d6000fd5b50505050600860009054906101000a900473ffffffffffffffffffffffffffffffffffffffff1673ffffffffffffffffffffffffffffffffffffffff166340c10f1933866040518363ffffffff1660e01b8152600401808373ffffffffffffffffffffffffffffffffffffffff1673ffffffffffffffffffffffffffffffffffffffff16815260200182815260200192505050600060405180830381600087803b158015611b0257600080fd5b505af1158015611b16573d6000803e3d6000fd5b50505050611b63600560003373ffffffffffffffffffffffffffffffffffffffff1673ffffffffffffffffffffffffffffffffffffffff1681526020019081526020016000205485612775565b600560003373ffffffffffffffffffffffffffffffffffffffff1673ffffffffffffffffffffffffffffffffffffffff16815260200190815260200160002081905550611bef84600360003373ffffffffffffffffffffffffffffffffffffffff1673ffffffffffffffffffffffffffffffffffffffff168152602001908152602001600020546125be565b81833373ffffffffffffffffffffffffffffffffffffffff166000357fffffffff00000000000000000000000000000000000000000000000000000000167bffffffffffffffffffffffffffffffffffffffffffffffffffffffff19168460003660405180848152602001806020018281038252848482818152602001925080828437600081840152601f19601f82011690508083019250505094505050505060405180910390a450505050565b600080611ca983610f70565b9050611cb481611282565b80915050919050565b60056020528060005260406000206000915090505481565b6000806000600435925060243591503490506000600260008b8152602001908152602001600020805490501180611d2e57507fc5d2460186f7233c927e7db2dcc703c0e500b653ca82273b7bfad8045d85a47060001b89145b611da0576040517f08c379a00000000000000000000000000000000000000000000000000000000081526004018080602001828103825260168152602001807f64732d63686965662d696e76616c69642d736c6174650000000000000000000081525060200191505060405180910390fd5b600660009054906101000a900473ffffffffffffffffffffffffffffffffffffffff1673ffffffffffffffffffffffffffffffffffffffff1663415df87c888888886040518563ffffffff1660e01b81526004018085600260200280838360005b83811015611e1c578082015181840152602081019050611e01565b505050509050018460026000925b81841015611e705782846020020151600260200280838360005b83811015611e5f578082015181840152602081019050611e44565b505050509050019260010192611e2a565b9250505083600260200280838360005b83811015611e9b578082015181840152602081019050611e80565b5050505090500182600360200280838360005b83811015611ec9578082015181840152602081019050611eae565b50505050905001945050505050602060405180830381600087803b158015611ef057600080fd5b505af1158015611f04573d6000803e3d6000fd5b505050506040513d6020811015611f1a57600080fd5b8101908080519060200190929190505050611f9d576040517f08c379a00000000000000000000000000000000000000000000000000000000081526004018080602001828103825260168152602001807f5468652070726f6f66206973206e6f742076616c69640000000000000000000081525060200191505060405180910390fd5b6000600560008a73ffffffffffffffffffffffffffffffffffffffff1673ffffffffffffffffffffffffffffffffffffffff16815260200190815260200160002054905061202a81600360008c73ffffffffffffffffffffffffffffffffffffffff1673ffffffffffffffffffffffffffffffffffffffff1681526020019081526020016000205461248a565b89600360008b73ffffffffffffffffffffffffffffffffffffffff1673ffffffffffffffffffffffffffffffffffffffff168152602001908152602001600020819055506120b781600360008c73ffffffffffffffffffffffffffffffffffffffff1673ffffffffffffffffffffffffffffffffffffffff168152602001908152602001600020546125be565b5081833373ffffffffffffffffffffffffffffffffffffffff166000357fffffffff00000000000000000000000000000000000000000000000000000000167bffffffffffffffffffffffffffffffffffffffffffffffffffffffff19168460003660405180848152602001806020018281038252848482818152602001925080828437600081840152601f19601f82011690508083019250505094505050505060405180910390a4505050505050505050565b600960009054906101000a900473ffffffffffffffffffffffffffffffffffffffff1681565b60003073ffffffffffffffffffffffffffffffffffffffff168373ffffffffffffffffffffffffffffffffffffffff1614156121d057600190506123e4565b600160009054906101000a900473ffffffffffffffffffffffffffffffffffffffff1673ffffffffffffffffffffffffffffffffffffffff168373ffffffffffffffffffffffffffffffffffffffff16141561222f57600190506123e4565b600073ffffffffffffffffffffffffffffffffffffffff166000809054906101000a900473ffffffffffffffffffffffffffffffffffffffff1673ffffffffffffffffffffffffffffffffffffffff16141561228e57600090506123e4565b6000809054906101000a900473ffffffffffffffffffffffffffffffffffffffff1673ffffffffffffffffffffffffffffffffffffffff1663b70096138430856040518463ffffffff1660e01b8152600401808473ffffffffffffffffffffffffffffffffffffffff1673ffffffffffffffffffffffffffffffffffffffff1681526020018373ffffffffffffffffffffffffffffffffffffffff1673ffffffffffffffffffffffffffffffffffffffff168152602001827bffffffffffffffffffffffffffffffffffffffffffffffffffffffff19167bffffffffffffffffffffffffffffffffffffffffffffffffffffffff19168152602001935050505060206040518083038186803b1580156123a657600080fd5b505afa1580156123ba573d6000803e3d6000fd5b505050506040513d60208110156123d057600080fd5b810190808051906020019092919050505090505b92915050565b6000815114806123fb575060018151145b1561240557612487565b60008090505b60018251038110156124855781600182018151811061242657fe5b602002602001015173ffffffffffffffffffffffffffffffffffffffff1682828151811061245057fe5b602002602001015173ffffffffffffffffffffffffffffffffffffffff161061247857600080fd5b808060010191505061240b565b505b50565b600060026000838152602001908152602001600020905060008090505b81805490508110156125b857612532600460008484815481106124c657fe5b9060005260206000200160009054906101000a900473ffffffffffffffffffffffffffffffffffffffff1673ffffffffffffffffffffffffffffffffffffffff1673ffffffffffffffffffffffffffffffffffffffff16815260200190815260200160002054856126f2565b6004600084848154811061254257fe5b9060005260206000200160009054906101000a900473ffffffffffffffffffffffffffffffffffffffff1673ffffffffffffffffffffffffffffffffffffffff1673ffffffffffffffffffffffffffffffffffffffff1681526020019081526020016000208190555080806001019150506124a7565b50505050565b600060026000838152602001908152602001600020905060008090505b81805490508110156126ec57612666600460008484815481106125fa57fe5b9060005260206000200160009054906101000a900473ffffffffffffffffffffffffffffffffffffffff1673ffffffffffffffffffffffffffffffffffffffff1673ffffffffffffffffffffffffffffffffffffffff1681526020019081526020016000205485612775565b6004600084848154811061267657fe5b9060005260206000200160009054906101000a900473ffffffffffffffffffffffffffffffffffffffff1673ffffffffffffffffffffffffffffffffffffffff1673ffffffffffffffffffffffffffffffffffffffff1681526020019081526020016000208190555080806001019150506125db565b50505050565b600082828403915081111561276f576040517f08c379a00000000000000000000000000000000000000000000000000000000081526004018080602001828103825260158152602001807f64732d6d6174682d7375622d756e646572666c6f77000000000000000000000081525060200191505060405180910390fd5b92915050565b60008282840191508110156127f2576040517f08c379a00000000000000000000000000000000000000000000000000000000081526004018080602001828103825260148152602001807f64732d6d6174682d6164642d6f766572666c6f7700000000000000000000000081525060200191505060405180910390fd5b92915050565b828054828255906000526020600020908101928215612871579160200282015b828111156128705782518260006101000a81548173ffffffffffffffffffffffffffffffffffffffff021916908373ffffffffffffffffffffffffffffffffffffffff16021790555091602001919060010190612818565b5b50905061287e9190612882565b5090565b6128c291905b808211156128be57600081816101000a81549073ffffffffffffffffffffffffffffffffffffffff021916905550600101612888565b5090565b9056fea265627a7a72315820695c509fec43c8879be8cd4cbeb9830946b9f1b02315b34dfc1886c5b7535b4964736f6c63430005100032",
  "source": "// chief.sol - select an authority by consensus\n\n// Copyright (C) 2017  DappHub, LLC\n\n// This program is free software: you can redistribute it and/or modify\n// it under the terms of the GNU General Public License as published by\n// the Free Software Foundation, either version 3 of the License, or\n// (at your option) any later version.\n\n// This program is distributed in the hope that it will be useful,\n// but WITHOUT ANY WARRANTY; without even the implied warranty of\n// MERCHANTABILITY or FITNESS FOR A PARTICULAR PURPOSE.  See the\n// GNU General Public License for more details.\n\n// You should have received a copy of the GNU General Public License\n// along with this program.  If not, see <http://www.gnu.org/licenses/>.\n\npragma solidity >=0.4.23;\n\nimport './token.sol';\nimport './roles.sol';\nimport './thing.sol';\nimport './secretVerifier.sol';\n\n// The right way to use this contract is probably to mix it with some kind\n// of `DSAuthority`, like with `ds-roles`.\n//   SEE DSChief\ncontract DSChiefApprovals is DSThing {\n    mapping(bytes32=>address[]) public slates;\n    mapping(address=>bytes32) public votes;\n    mapping(address=>uint256) public approvals;\n    mapping(address=>uint256) public deposits;\n\n    SecretVerifier public verifier;\n    DSToken public GOV; // voting token that gets locked up\n    DSToken public IOU; // non-voting representation of a token, for e.g. secondary voting mechanisms\n    address public hat; // the chieftain's hat\n    address public verifierAddress;\n    uint256 public MAX_YAYS;\n\n    event Etch(bytes32 indexed slate);\n\n    // IOU constructed outside this contract reduces deployment costs significantly\n    // lock/free/vote are quite sensitive to token invariants. Caution is advised.\n    constructor(DSToken GOV_, DSToken IOU_, uint MAX_YAYS_) public\n    {\n        GOV = GOV_;\n        IOU = IOU_;\n        MAX_YAYS = MAX_YAYS_;\n    }\n\n    function setVerifer(address _verifierAddress) public {\n        verifierAddress = _verifierAddress;\n        verifier = SecretVerifier(verifierAddress);\n    }\n\n    function lock(uint wad)\n        public\n        note\n    {\n        GOV.pull(msg.sender, wad);\n        IOU.mint(msg.sender, wad);\n        deposits[msg.sender] = add(deposits[msg.sender], wad);\n        addWeight(wad, votes[msg.sender]);\n    }\n\n    function free(uint wad)\n        public\n        note\n    {\n        deposits[msg.sender] = sub(deposits[msg.sender], wad);\n        subWeight(wad, votes[msg.sender]);\n        IOU.burn(msg.sender, wad);\n        GOV.push(msg.sender, wad);\n    }\n\n    function etch(address[] memory yays)\n        public\n        note\n        returns (bytes32 slate)\n    {\n        require( yays.length <= MAX_YAYS );\n        requireByteOrderedSet(yays);\n\n        bytes32 hash = keccak256(abi.encodePacked(yays));\n        slates[hash] = yays;\n        emit Etch(hash);\n        return hash;\n    }\n\n    function vote(address[] memory yays) public returns (bytes32)\n        // note  both sub-calls note\n    {\n        bytes32 slate = etch(yays);\n        vote(slate);\n        return slate;\n    }\n\n    function vote(bytes32 slate)\n        public\n        note\n    {\n        require(slates[slate].length > 0 ||\n            slate == 0xc5d2460186f7233c927e7db2dcc703c0e500b653ca82273b7bfad8045d85a470, \"ds-chief-invalid-slate\");\n        uint weight = deposits[msg.sender];\n        subWeight(weight, votes[msg.sender]);\n        votes[msg.sender] = slate;\n        addWeight(weight, votes[msg.sender]);\n    }\n\n    function vote(address[] memory yays, address delegator, uint[2] memory a,\n            uint[2][2] memory b,\n            uint[2] memory c,\n            uint[3] memory input\n        ) public returns (bytes32)\n        // note  both sub-calls note\n    {\n\n        bytes32 slate = etch(yays);\n        vote(slate, delegator, a, b, c, input);\n        return slate;\n    }\n\n    function vote(bytes32 slate, address delegator, uint[2] memory a,\n            uint[2][2] memory b,\n            uint[2] memory c,\n            uint[3] memory input)\n        public\n        note\n    {   \n        require(slates[slate].length > 0 ||\n            slate == 0xc5d2460186f7233c927e7db2dcc703c0e500b653ca82273b7bfad8045d85a470, \"ds-chief-invalid-slate\");\n        require(verifier.verifyTx(a, b, c, input), \"The proof is not valid\");\n        uint weight = deposits[delegator];\n        subWeight(weight, votes[delegator]);\n        votes[delegator] = slate;\n        addWeight(weight, votes[delegator]);\n    }\n\n    // like `drop`/`swap` except simply \"elect this address if it is higher than current hat\"\n    function lift(address whom)\n        public\n        note\n    {\n        require(approvals[whom] > approvals[hat]);\n        hat = whom;\n    }\n\n    function addWeight(uint weight, bytes32 slate)\n        internal\n    {\n        address[] storage yays = slates[slate];\n        for( uint i = 0; i < yays.length; i++) {\n            approvals[yays[i]] = add(approvals[yays[i]], weight);\n        }\n    }\n\n    function subWeight(uint weight, bytes32 slate)\n        internal\n    {\n        address[] storage yays = slates[slate];\n        for( uint i = 0; i < yays.length; i++) {\n            approvals[yays[i]] = sub(approvals[yays[i]], weight);\n        }\n    }\n\n    // Throws unless the array of addresses is a ordered set.\n    function requireByteOrderedSet(address[] memory yays)\n        internal\n        pure\n    {\n        if( yays.length == 0 || yays.length == 1 ) {\n            return;\n        }\n        for( uint i = 0; i < yays.length - 1; i++ ) {\n            // strict inequality ensures both ordering and uniqueness\n            require(uint(yays[i]) < uint(yays[i+1]));\n        }\n    }\n}\n\n\n// `hat` address is unique root user (has every role) and the\n// unique owner of role 0 (typically 'sys' or 'internal')\ncontract DSChief is DSRoles, DSChiefApprovals {\n\n    constructor(DSToken GOV, DSToken IOU, uint MAX_YAYS)\n             DSChiefApprovals (GOV, IOU, MAX_YAYS)\n        public\n    {\n        authority = this;\n        owner = address(0);\n    }\n\n    function setOwner(address owner_) public {\n        owner_;\n        revert();\n    }\n\n    function setAuthority(DSAuthority authority_) public {\n        authority_;\n        revert();\n    }\n\n    function isUserRoot(address who)\n        public view\n        returns (bool)\n    {\n        return (who == hat);\n    }\n    function setRootUser(address who, bool enabled) public {\n        who; enabled;\n        revert();\n    }\n}\n\ncontract DSChiefFab {\n    function newChief(DSToken gov, uint MAX_YAYS) public returns (DSChief chief) {\n        DSToken iou = new DSToken('IOU');\n        chief = new DSChief(gov, iou, MAX_YAYS);\n        iou.setOwner(address(chief));\n    }\n}",
  "sourcePath": "/home/akash/Videos/Private-delegation-Maker-Governance/maker/contracts/chief.sol",
  "compiler": {
    "name": "solc",
    "version": "0.5.16+commit.9c3226ce.Emscripten.clang"
  },
  "schemaVersion": "3.0.23",
  "updatedAt": "2020-06-24T13:13:15.151Z",
  "devdoc": {
    "methods": {}
  },
  "userdoc": {
    "methods": {}
  }
}