{
  "contractName": "DSChiefApprovals",
  "abi": [
    {
      "inputs": [
        {
          "internalType": "contract DSTokenGOV",
          "name": "GOV_",
          "type": "address"
        },
        {
          "internalType": "contract DSTokenIOU",
          "name": "IOU_",
          "type": "address"
        },
        {
          "internalType": "uint256",
          "name": "MAX_YAYS_",
          "type": "uint256"
        }
      ],
      "payable": false,
      "stateMutability": "nonpayable",
      "type": "constructor"
    },
    {
      "anonymous": false,
      "inputs": [
        {
          "indexed": true,
          "internalType": "bytes32",
          "name": "slate",
          "type": "bytes32"
        }
      ],
      "name": "Etch",
      "type": "event"
    },
    {
      "anonymous": true,
      "inputs": [
        {
          "indexed": true,
          "internalType": "bytes4",
          "name": "sig",
          "type": "bytes4"
        },
        {
          "indexed": true,
          "internalType": "address",
          "name": "guy",
          "type": "address"
        },
        {
          "indexed": true,
          "internalType": "bytes32",
          "name": "foo",
          "type": "bytes32"
        },
        {
          "indexed": true,
          "internalType": "bytes32",
          "name": "bar",
          "type": "bytes32"
        },
        {
          "indexed": false,
          "internalType": "uint256",
          "name": "wad",
          "type": "uint256"
        },
        {
          "indexed": false,
          "internalType": "bytes",
          "name": "fax",
          "type": "bytes"
        }
      ],
      "name": "LogNote",
      "type": "event"
    },
    {
      "anonymous": false,
      "inputs": [
        {
          "indexed": true,
          "internalType": "address",
          "name": "authority",
          "type": "address"
        }
      ],
      "name": "LogSetAuthority",
      "type": "event"
    },
    {
      "anonymous": false,
      "inputs": [
        {
          "indexed": true,
          "internalType": "address",
          "name": "owner",
          "type": "address"
        }
      ],
      "name": "LogSetOwner",
      "type": "event"
    },
    {
      "constant": true,
      "inputs": [],
      "name": "GOV",
      "outputs": [
        {
          "internalType": "contract DSTokenGOV",
          "name": "",
          "type": "address"
        }
      ],
      "payable": false,
      "stateMutability": "view",
      "type": "function"
    },
    {
      "constant": true,
      "inputs": [],
      "name": "IOU",
      "outputs": [
        {
          "internalType": "contract DSTokenIOU",
          "name": "",
          "type": "address"
        }
      ],
      "payable": false,
      "stateMutability": "view",
      "type": "function"
    },
    {
      "constant": true,
      "inputs": [],
      "name": "MAX_YAYS",
      "outputs": [
        {
          "internalType": "uint256",
          "name": "",
          "type": "uint256"
        }
      ],
      "payable": false,
      "stateMutability": "view",
      "type": "function"
    },
    {
      "constant": true,
      "inputs": [
        {
          "internalType": "address",
          "name": "",
          "type": "address"
        }
      ],
      "name": "approvals",
      "outputs": [
        {
          "internalType": "uint256",
          "name": "",
          "type": "uint256"
        }
      ],
      "payable": false,
      "stateMutability": "view",
      "type": "function"
    },
    {
      "constant": true,
      "inputs": [],
      "name": "authority",
      "outputs": [
        {
          "internalType": "contract DSAuthority",
          "name": "",
          "type": "address"
        }
      ],
      "payable": false,
      "stateMutability": "view",
      "type": "function"
    },
    {
      "constant": true,
      "inputs": [
        {
          "internalType": "address",
          "name": "",
          "type": "address"
        }
      ],
      "name": "deposits",
      "outputs": [
        {
          "internalType": "uint256",
          "name": "",
          "type": "uint256"
        }
      ],
      "payable": false,
      "stateMutability": "view",
      "type": "function"
    },
    {
      "constant": true,
      "inputs": [],
      "name": "hat",
      "outputs": [
        {
          "internalType": "address",
          "name": "",
          "type": "address"
        }
      ],
      "payable": false,
      "stateMutability": "view",
      "type": "function"
    },
    {
      "constant": true,
      "inputs": [],
      "name": "owner",
      "outputs": [
        {
          "internalType": "address",
          "name": "",
          "type": "address"
        }
      ],
      "payable": false,
      "stateMutability": "view",
      "type": "function"
    },
    {
      "constant": true,
      "inputs": [
        {
          "internalType": "address",
          "name": "",
          "type": "address"
        }
      ],
      "name": "secretHash",
      "outputs": [
        {
          "internalType": "bytes32",
          "name": "",
          "type": "bytes32"
        }
      ],
      "payable": false,
      "stateMutability": "view",
      "type": "function"
    },
    {
      "constant": false,
      "inputs": [
        {
          "internalType": "contract DSAuthority",
          "name": "authority_",
          "type": "address"
        }
      ],
      "name": "setAuthority",
      "outputs": [],
      "payable": false,
      "stateMutability": "nonpayable",
      "type": "function"
    },
    {
      "constant": false,
      "inputs": [
        {
          "internalType": "address",
          "name": "owner_",
          "type": "address"
        }
      ],
      "name": "setOwner",
      "outputs": [],
      "payable": false,
      "stateMutability": "nonpayable",
      "type": "function"
    },
    {
      "constant": true,
      "inputs": [
        {
          "internalType": "bytes32",
          "name": "",
          "type": "bytes32"
        },
        {
          "internalType": "uint256",
          "name": "",
          "type": "uint256"
        }
      ],
      "name": "slates",
      "outputs": [
        {
          "internalType": "address",
          "name": "",
          "type": "address"
        }
      ],
      "payable": false,
      "stateMutability": "view",
      "type": "function"
    },
    {
      "constant": true,
      "inputs": [],
      "name": "verifier",
      "outputs": [
        {
          "internalType": "contract SecretVerifier",
          "name": "",
          "type": "address"
        }
      ],
      "payable": false,
      "stateMutability": "view",
      "type": "function"
    },
    {
      "constant": true,
      "inputs": [],
      "name": "verifierAddress",
      "outputs": [
        {
          "internalType": "address",
          "name": "",
          "type": "address"
        }
      ],
      "payable": false,
      "stateMutability": "view",
      "type": "function"
    },
    {
      "constant": true,
      "inputs": [
        {
          "internalType": "address",
          "name": "",
          "type": "address"
        }
      ],
      "name": "votes",
      "outputs": [
        {
          "internalType": "bytes32",
          "name": "",
          "type": "bytes32"
        }
      ],
      "payable": false,
      "stateMutability": "view",
      "type": "function"
    },
    {
      "constant": false,
      "inputs": [
        {
          "internalType": "address",
          "name": "_verifierAddress",
          "type": "address"
        }
      ],
      "name": "setVerifer",
      "outputs": [],
      "payable": false,
      "stateMutability": "nonpayable",
      "type": "function"
    },
    {
      "constant": false,
      "inputs": [
        {
          "internalType": "bytes32",
          "name": "_secretHash",
          "type": "bytes32"
        }
      ],
      "name": "setSecretHash",
      "outputs": [],
      "payable": false,
      "stateMutability": "nonpayable",
      "type": "function"
    },
    {
      "constant": false,
      "inputs": [
        {
          "internalType": "uint256",
          "name": "wad",
          "type": "uint256"
        }
      ],
      "name": "lock",
      "outputs": [],
      "payable": false,
      "stateMutability": "nonpayable",
      "type": "function"
    },
    {
      "constant": false,
      "inputs": [
        {
          "internalType": "uint256",
          "name": "wad",
          "type": "uint256"
        }
      ],
      "name": "free",
      "outputs": [],
      "payable": false,
      "stateMutability": "nonpayable",
      "type": "function"
    },
    {
      "constant": false,
      "inputs": [
        {
          "internalType": "address[]",
          "name": "yays",
          "type": "address[]"
        }
      ],
      "name": "etch",
      "outputs": [
        {
          "internalType": "bytes32",
          "name": "slate",
          "type": "bytes32"
        }
      ],
      "payable": false,
      "stateMutability": "nonpayable",
      "type": "function"
    },
    {
      "constant": false,
      "inputs": [
        {
          "internalType": "bytes32",
          "name": "slate",
          "type": "bytes32"
        }
      ],
      "name": "vote",
      "outputs": [],
      "payable": false,
      "stateMutability": "nonpayable",
      "type": "function"
    },
    {
      "constant": false,
      "inputs": [
        {
          "internalType": "address[]",
          "name": "yays",
          "type": "address[]"
        }
      ],
      "name": "vote",
      "outputs": [
        {
          "internalType": "bytes32",
          "name": "",
          "type": "bytes32"
        }
      ],
      "payable": false,
      "stateMutability": "nonpayable",
      "type": "function"
    },
    {
      "constant": false,
      "inputs": [
        {
          "internalType": "bytes32",
          "name": "slate",
          "type": "bytes32"
        },
        {
          "internalType": "address",
          "name": "voteProxy",
          "type": "address"
        },
        {
          "internalType": "uint256[2]",
          "name": "a",
          "type": "uint256[2]"
        },
        {
          "internalType": "uint256[2][2]",
          "name": "b",
          "type": "uint256[2][2]"
        },
        {
          "internalType": "uint256[2]",
          "name": "c",
          "type": "uint256[2]"
        },
        {
          "internalType": "uint256[3]",
          "name": "input",
          "type": "uint256[3]"
        }
      ],
      "name": "delegateVote",
      "outputs": [],
      "payable": false,
      "stateMutability": "nonpayable",
      "type": "function"
    },
    {
      "constant": false,
      "inputs": [
        {
          "internalType": "address[]",
          "name": "yays",
          "type": "address[]"
        },
        {
          "internalType": "address",
          "name": "voteProxy",
          "type": "address"
        },
        {
          "internalType": "uint256[2]",
          "name": "a",
          "type": "uint256[2]"
        },
        {
          "internalType": "uint256[2][2]",
          "name": "b",
          "type": "uint256[2][2]"
        },
        {
          "internalType": "uint256[2]",
          "name": "c",
          "type": "uint256[2]"
        },
        {
          "internalType": "uint256[3]",
          "name": "input",
          "type": "uint256[3]"
        }
      ],
      "name": "delegateVote",
      "outputs": [
        {
          "internalType": "bytes32",
          "name": "",
          "type": "bytes32"
        }
      ],
      "payable": false,
      "stateMutability": "nonpayable",
      "type": "function"
    },
    {
      "constant": true,
      "inputs": [
        {
          "internalType": "address",
          "name": "voteProxy",
          "type": "address"
        },
        {
          "internalType": "uint256",
          "name": "input1",
          "type": "uint256"
        },
        {
          "internalType": "uint256",
          "name": "input2",
          "type": "uint256"
        }
      ],
      "name": "checkInput",
      "outputs": [
        {
          "internalType": "bool",
          "name": "",
          "type": "bool"
        }
      ],
      "payable": false,
      "stateMutability": "view",
      "type": "function"
    },
    {
      "constant": false,
      "inputs": [
        {
          "internalType": "address",
          "name": "whom",
          "type": "address"
        }
      ],
      "name": "lift",
      "outputs": [],
      "payable": false,
      "stateMutability": "nonpayable",
      "type": "function"
    }
  ],
  "bytecode": "0x608060405234801561001057600080fd5b50604051612d39380380612d398339818101604052606081101561003357600080fd5b8101908080519060200190929190805190602001909291908051906020019092919050505033600160006101000a81548173ffffffffffffffffffffffffffffffffffffffff021916908373ffffffffffffffffffffffffffffffffffffffff1602179055503373ffffffffffffffffffffffffffffffffffffffff167fce241d7ca1f669fee44b6fc00b8eba2df3bb514eed0f6f668f8f89096e81ed9460405160405180910390a282600860006101000a81548173ffffffffffffffffffffffffffffffffffffffff021916908373ffffffffffffffffffffffffffffffffffffffff16021790555081600960006101000a81548173ffffffffffffffffffffffffffffffffffffffff021916908373ffffffffffffffffffffffffffffffffffffffff16021790555080600c81905550505050612bc2806101776000396000f3fe608060405234801561001057600080fd5b506004361061018e5760003560e01c80637a9e5e4b116100de578063c2ffc7bb11610097578063dd46706411610071578063dd46706414610b77578063ed08132914610ba5578063fc7e286d14610c71578063fe95a5ce14610cc95761018e565b8063c2ffc7bb14610a79578063d8bff5a514610af1578063d8ccd0f314610b495761018e565b80637a9e5e4b146107065780638da5cb5b1461074a578063a69beaba14610794578063b1a116c6146107c2578063b49aea38146109eb578063bf7e214f14610a2f5761018e565b80632b7ac3f31161014b5780635123e1fa116101255780635123e1fa1461055c5780635d0341ba146106285780636ac2da1914610680578063733b0fb4146106d85761018e565b80632b7ac3f3146104b0578063362344b8146104fa5780633c278bd5146105185761018e565b8063046c472f146101935780630c41d758146101dd57806313af40351461024d578063180cb47f1461029157806318bdffbb146102db578063289ebfeb14610325575b600080fd5b61019b610d13565b604051808273ffffffffffffffffffffffffffffffffffffffff1673ffffffffffffffffffffffffffffffffffffffff16815260200191505060405180910390f35b610233600480360360608110156101f357600080fd5b81019080803573ffffffffffffffffffffffffffffffffffffffff1690602001909291908035906020019092919080359060200190929190505050610d39565b604051808215151515815260200191505060405180910390f35b61028f6004803603602081101561026357600080fd5b81019080803573ffffffffffffffffffffffffffffffffffffffff169060200190929190505050610dbc565b005b610299610f05565b604051808273ffffffffffffffffffffffffffffffffffffffff1673ffffffffffffffffffffffffffffffffffffffff16815260200191505060405180910390f35b6102e3610f2b565b604051808273ffffffffffffffffffffffffffffffffffffffff1673ffffffffffffffffffffffffffffffffffffffff16815260200191505060405180910390f35b6104ae60048036036101a081101561033c57600080fd5b8101908080359060200190929190803573ffffffffffffffffffffffffffffffffffffffff16906020019092919080604001906002806020026040519081016040528092919082600260200280828437600081840152601f19601f82011690508083019250505050505091929192908060800190600280602002604051908101604052809291906000905b8282101561041b578382604002016002806020026040519081016040528092919082600260200280828437600081840152601f19601f820116905080830192505050505050815260200190600101906103c7565b50505050919291929080604001906002806020026040519081016040528092919082600260200280828437600081840152601f19601f820116905080830192505050505050919291929080606001906003806020026040519081016040528092919082600360200280828437600081840152601f19601f8201169050808301925050505050509192919290505050610f51565b005b6104b8611469565b604051808273ffffffffffffffffffffffffffffffffffffffff1673ffffffffffffffffffffffffffffffffffffffff16815260200191505060405180910390f35b61050261148f565b6040518082815260200191505060405180910390f35b61055a6004803603602081101561052e57600080fd5b81019080803573ffffffffffffffffffffffffffffffffffffffff169060200190929190505050611495565b005b6106126004803603602081101561057257600080fd5b810190808035906020019064010000000081111561058f57600080fd5b8201836020820111156105a157600080fd5b803590602001918460208302840111640100000000831117156105c357600080fd5b919080806020026020016040519081016040528093929190818152602001838360200280828437600081840152601f19601f820116905080830192505050505050509192919290505050611642565b6040518082815260200191505060405180910390f35b61066a6004803603602081101561063e57600080fd5b81019080803573ffffffffffffffffffffffffffffffffffffffff1690602001909291905050506117cf565b6040518082815260200191505060405180910390f35b6106c26004803603602081101561069657600080fd5b81019080803573ffffffffffffffffffffffffffffffffffffffff1690602001909291905050506117e7565b6040518082815260200191505060405180910390f35b610704600480360360208110156106ee57600080fd5b81019080803590602001909291905050506117ff565b005b6107486004803603602081101561071c57600080fd5b81019080803573ffffffffffffffffffffffffffffffffffffffff169060200190929190505050611846565b005b61075261198d565b604051808273ffffffffffffffffffffffffffffffffffffffff1673ffffffffffffffffffffffffffffffffffffffff16815260200191505060405180910390f35b6107c0600480360360208110156107aa57600080fd5b81019080803590602001909291905050506119b3565b005b6109d560048036036101a08110156107d957600080fd5b81019080803590602001906401000000008111156107f657600080fd5b82018360208201111561080857600080fd5b8035906020019184602083028401116401000000008311171561082a57600080fd5b919080806020026020016040519081016040528093929190818152602001838360200280828437600081840152601f19601f820116905080830192505050505050509192919290803573ffffffffffffffffffffffffffffffffffffffff16906020019092919080604001906002806020026040519081016040528092919082600260200280828437600081840152601f19601f82011690508083019250505050505091929192908060800190600280602002604051908101604052809291906000905b82821015610942578382604002016002806020026040519081016040528092919082600260200280828437600081840152601f19601f820116905080830192505050505050815260200190600101906108ee565b50505050919291929080604001906002806020026040519081016040528092919082600260200280828437600081840152601f19601f820116905080830192505050505050919291929080606001906003806020026040519081016040528092919082600360200280828437600081840152601f19601f8201169050808301925050505050509192919290505050611c47565b6040518082815260200191505060405180910390f35b610a2d60048036036020811015610a0157600080fd5b81019080803573ffffffffffffffffffffffffffffffffffffffff169060200190929190505050611c71565b005b610a37611d18565b604051808273ffffffffffffffffffffffffffffffffffffffff1673ffffffffffffffffffffffffffffffffffffffff16815260200191505060405180910390f35b610aaf60048036036040811015610a8f57600080fd5b810190808035906020019092919080359060200190929190505050611d3d565b604051808273ffffffffffffffffffffffffffffffffffffffff1673ffffffffffffffffffffffffffffffffffffffff16815260200191505060405180910390f35b610b3360048036036020811015610b0757600080fd5b81019080803573ffffffffffffffffffffffffffffffffffffffff169060200190929190505050611d88565b6040518082815260200191505060405180910390f35b610b7560048036036020811015610b5f57600080fd5b8101908080359060200190929190505050611da0565b005b610ba360048036036020811015610b8d57600080fd5b81019080803590602001909291905050506120b7565b005b610c5b60048036036020811015610bbb57600080fd5b8101908080359060200190640100000000811115610bd857600080fd5b820183602082011115610bea57600080fd5b80359060200191846020830284011164010000000083111715610c0c57600080fd5b919080806020026020016040519081016040528093929190818152602001838360200280828437600081840152601f19601f8201169050808301925050505050505091929192905050506123ce565b6040518082815260200191505060405180910390f35b610cb360048036036020811015610c8757600080fd5b81019080803573ffffffffffffffffffffffffffffffffffffffff1690602001909291905050506123ee565b6040518082815260200191505060405180910390f35b610cd1612406565b604051808273ffffffffffffffffffffffffffffffffffffffff1673ffffffffffffffffffffffffffffffffffffffff16815260200191505060405180910390f35b600960009054906101000a900473ffffffffffffffffffffffffffffffffffffffff1681565b6000807001000000000000000000000000000000008402905060008382179050600660008773ffffffffffffffffffffffffffffffffffffffff1673ffffffffffffffffffffffffffffffffffffffff168152602001908152602001600020548160001b1415610dae57600192505050610db5565b6000925050505b9392505050565b610dea336000357fffffffff000000000000000000000000000000000000000000000000000000001661242c565b610e5c576040517f08c379a00000000000000000000000000000000000000000000000000000000081526004018080602001828103825260148152602001807f64732d617574682d756e617574686f72697a656400000000000000000000000081525060200191505060405180910390fd5b80600160006101000a81548173ffffffffffffffffffffffffffffffffffffffff021916908373ffffffffffffffffffffffffffffffffffffffff160217905550600160009054906101000a900473ffffffffffffffffffffffffffffffffffffffff1673ffffffffffffffffffffffffffffffffffffffff167fce241d7ca1f669fee44b6fc00b8eba2df3bb514eed0f6f668f8f89096e81ed9460405160405180910390a250565b600860009054906101000a900473ffffffffffffffffffffffffffffffffffffffff1681565b600b60009054906101000a900473ffffffffffffffffffffffffffffffffffffffff1681565b6000806000600435925060243591503490506000600260008b8152602001908152602001600020805490501180610faa57507fc5d2460186f7233c927e7db2dcc703c0e500b653ca82273b7bfad8045d85a47060001b89145b61101c576040517f08c379a00000000000000000000000000000000000000000000000000000000081526004018080602001828103825260168152602001807f64732d63686965662d696e76616c69642d736c6174650000000000000000000081525060200191505060405180910390fd5b611049888560006003811061102d57fe5b60200201518660016003811061103f57fe5b6020020151610d39565b61109e576040517f08c379a000000000000000000000000000000000000000000000000000000000815260040180806020018281038252602d815260200180612b61602d913960400191505060405180910390fd5b600760009054906101000a900473ffffffffffffffffffffffffffffffffffffffff1673ffffffffffffffffffffffffffffffffffffffff1663415df87c888888886040518563ffffffff1660e01b81526004018085600260200280838360005b8381101561111a5780820151818401526020810190506110ff565b505050509050018460026000925b8184101561116e5782846020020151600260200280838360005b8381101561115d578082015181840152602081019050611142565b505050509050019260010192611128565b9250505083600260200280838360005b8381101561119957808201518184015260208101905061117e565b5050505090500182600360200280838360005b838110156111c75780820151818401526020810190506111ac565b50505050905001945050505050602060405180830381600087803b1580156111ee57600080fd5b505af1158015611202573d6000803e3d6000fd5b505050506040513d602081101561121857600080fd5b810190808051906020019092919050505061129b576040517f08c379a00000000000000000000000000000000000000000000000000000000081526004018080602001828103825260168152602001807f5468652070726f6f66206973206e6f742076616c69640000000000000000000081525060200191505060405180910390fd5b6000600560008a73ffffffffffffffffffffffffffffffffffffffff1673ffffffffffffffffffffffffffffffffffffffff16815260200190815260200160002054905061132881600360008c73ffffffffffffffffffffffffffffffffffffffff1673ffffffffffffffffffffffffffffffffffffffff16815260200190815260200160002054612685565b89600360008b73ffffffffffffffffffffffffffffffffffffffff1673ffffffffffffffffffffffffffffffffffffffff168152602001908152602001600020819055506113b581600360008c73ffffffffffffffffffffffffffffffffffffffff1673ffffffffffffffffffffffffffffffffffffffff168152602001908152602001600020546127b9565b5081833373ffffffffffffffffffffffffffffffffffffffff166000357fffffffff00000000000000000000000000000000000000000000000000000000167bffffffffffffffffffffffffffffffffffffffffffffffffffffffff19168460003660405180848152602001806020018281038252848482818152602001925080828437600081840152601f19601f82011690508083019250505094505050505060405180910390a4505050505050505050565b600760009054906101000a900473ffffffffffffffffffffffffffffffffffffffff1681565b600c5481565b60008060006004359250602435915034905060046000600a60009054906101000a900473ffffffffffffffffffffffffffffffffffffffff1673ffffffffffffffffffffffffffffffffffffffff1673ffffffffffffffffffffffffffffffffffffffff16815260200190815260200160002054600460008673ffffffffffffffffffffffffffffffffffffffff1673ffffffffffffffffffffffffffffffffffffffff168152602001908152602001600020541161155357600080fd5b83600a60006101000a81548173ffffffffffffffffffffffffffffffffffffffff021916908373ffffffffffffffffffffffffffffffffffffffff16021790555081833373ffffffffffffffffffffffffffffffffffffffff166000357fffffffff00000000000000000000000000000000000000000000000000000000167bffffffffffffffffffffffffffffffffffffffffffffffffffffffff19168460003660405180848152602001806020018281038252848482818152602001925080828437600081840152601f19601f82011690508083019250505094505050505060405180910390a450505050565b60008060008060043592506024359150349050600c548551111561166557600080fd5b61166e856128ed565b60008560405160200180828051906020019060200280838360005b838110156116a4578082015181840152602081019050611689565b50505050905001915050604051602081830303815290604052805190602001209050856002600083815260200190815260200160002090805190602001906116ed929190612a93565b50807f4f0892983790f53eea39a7a496f6cb40e8811b313871337b6a761efc6c67bb1f60405160405180910390a28094505081833373ffffffffffffffffffffffffffffffffffffffff166000357fffffffff00000000000000000000000000000000000000000000000000000000167bffffffffffffffffffffffffffffffffffffffffffffffffffffffff19168460003660405180848152602001806020018281038252848482818152602001925080828437600081840152601f19601f82011690508083019250505094505050505060405180910390a4505050919050565b60046020528060005260406000206000915090505481565b60066020528060005260406000206000915090505481565b80600660003373ffffffffffffffffffffffffffffffffffffffff1673ffffffffffffffffffffffffffffffffffffffff1681526020019081526020016000208190555050565b611874336000357fffffffff000000000000000000000000000000000000000000000000000000001661242c565b6118e6576040517f08c379a00000000000000000000000000000000000000000000000000000000081526004018080602001828103825260148152602001807f64732d617574682d756e617574686f72697a656400000000000000000000000081525060200191505060405180910390fd5b806000806101000a81548173ffffffffffffffffffffffffffffffffffffffff021916908373ffffffffffffffffffffffffffffffffffffffff1602179055506000809054906101000a900473ffffffffffffffffffffffffffffffffffffffff1673ffffffffffffffffffffffffffffffffffffffff167f1abebea81bfa2637f28358c371278fb15ede7ea8dd28d2e03b112ff6d936ada460405160405180910390a250565b600160009054906101000a900473ffffffffffffffffffffffffffffffffffffffff1681565b600080600060043592506024359150349050600060026000868152602001908152602001600020805490501180611a0c57507fc5d2460186f7233c927e7db2dcc703c0e500b653ca82273b7bfad8045d85a47060001b84145b611a7e576040517f08c379a00000000000000000000000000000000000000000000000000000000081526004018080602001828103825260168152602001807f64732d63686965662d696e76616c69642d736c6174650000000000000000000081525060200191505060405180910390fd5b6000600560003373ffffffffffffffffffffffffffffffffffffffff1673ffffffffffffffffffffffffffffffffffffffff168152602001908152602001600020549050611b0b81600360003373ffffffffffffffffffffffffffffffffffffffff1673ffffffffffffffffffffffffffffffffffffffff16815260200190815260200160002054612685565b84600360003373ffffffffffffffffffffffffffffffffffffffff1673ffffffffffffffffffffffffffffffffffffffff16815260200190815260200160002081905550611b9881600360003373ffffffffffffffffffffffffffffffffffffffff1673ffffffffffffffffffffffffffffffffffffffff168152602001908152602001600020546127b9565b5081833373ffffffffffffffffffffffffffffffffffffffff166000357fffffffff00000000000000000000000000000000000000000000000000000000167bffffffffffffffffffffffffffffffffffffffffffffffffffffffff19168460003660405180848152602001806020018281038252848482818152602001925080828437600081840152601f19601f82011690508083019250505094505050505060405180910390a450505050565b600080611c5388611642565b9050611c63818888888888610f51565b809150509695505050505050565b80600b60006101000a81548173ffffffffffffffffffffffffffffffffffffffff021916908373ffffffffffffffffffffffffffffffffffffffff160217905550600b60009054906101000a900473ffffffffffffffffffffffffffffffffffffffff16600760006101000a81548173ffffffffffffffffffffffffffffffffffffffff021916908373ffffffffffffffffffffffffffffffffffffffff16021790555050565b6000809054906101000a900473ffffffffffffffffffffffffffffffffffffffff1681565b60026020528160005260406000208181548110611d5657fe5b906000526020600020016000915091509054906101000a900473ffffffffffffffffffffffffffffffffffffffff1681565b60036020528060005260406000206000915090505481565b600080600060043592506024359150349050611dfb600560003373ffffffffffffffffffffffffffffffffffffffff1673ffffffffffffffffffffffffffffffffffffffff168152602001908152602001600020548561298d565b600560003373ffffffffffffffffffffffffffffffffffffffff1673ffffffffffffffffffffffffffffffffffffffff16815260200190815260200160002081905550611e8784600360003373ffffffffffffffffffffffffffffffffffffffff1673ffffffffffffffffffffffffffffffffffffffff16815260200190815260200160002054612685565b600960009054906101000a900473ffffffffffffffffffffffffffffffffffffffff1673ffffffffffffffffffffffffffffffffffffffff16639dc29fac33866040518363ffffffff1660e01b8152600401808373ffffffffffffffffffffffffffffffffffffffff1673ffffffffffffffffffffffffffffffffffffffff16815260200182815260200192505050600060405180830381600087803b158015611f3057600080fd5b505af1158015611f44573d6000803e3d6000fd5b50505050600860009054906101000a900473ffffffffffffffffffffffffffffffffffffffff1673ffffffffffffffffffffffffffffffffffffffff1663b753a98c33866040518363ffffffff1660e01b8152600401808373ffffffffffffffffffffffffffffffffffffffff1673ffffffffffffffffffffffffffffffffffffffff16815260200182815260200192505050600060405180830381600087803b158015611ff157600080fd5b505af1158015612005573d6000803e3d6000fd5b5050505081833373ffffffffffffffffffffffffffffffffffffffff166000357fffffffff00000000000000000000000000000000000000000000000000000000167bffffffffffffffffffffffffffffffffffffffffffffffffffffffff19168460003660405180848152602001806020018281038252848482818152602001925080828437600081840152601f19601f82011690508083019250505094505050505060405180910390a450505050565b600080600060043592506024359150349050600860009054906101000a900473ffffffffffffffffffffffffffffffffffffffff1673ffffffffffffffffffffffffffffffffffffffff1663f2d5d56b33866040518363ffffffff1660e01b8152600401808373ffffffffffffffffffffffffffffffffffffffff1673ffffffffffffffffffffffffffffffffffffffff16815260200182815260200192505050600060405180830381600087803b15801561217257600080fd5b505af1158015612186573d6000803e3d6000fd5b50505050600960009054906101000a900473ffffffffffffffffffffffffffffffffffffffff1673ffffffffffffffffffffffffffffffffffffffff166340c10f1933866040518363ffffffff1660e01b8152600401808373ffffffffffffffffffffffffffffffffffffffff1673ffffffffffffffffffffffffffffffffffffffff16815260200182815260200192505050600060405180830381600087803b15801561223357600080fd5b505af1158015612247573d6000803e3d6000fd5b50505050612294600560003373ffffffffffffffffffffffffffffffffffffffff1673ffffffffffffffffffffffffffffffffffffffff1681526020019081526020016000205485612a10565b600560003373ffffffffffffffffffffffffffffffffffffffff1673ffffffffffffffffffffffffffffffffffffffff1681526020019081526020016000208190555061232084600360003373ffffffffffffffffffffffffffffffffffffffff1673ffffffffffffffffffffffffffffffffffffffff168152602001908152602001600020546127b9565b81833373ffffffffffffffffffffffffffffffffffffffff166000357fffffffff00000000000000000000000000000000000000000000000000000000167bffffffffffffffffffffffffffffffffffffffffffffffffffffffff19168460003660405180848152602001806020018281038252848482818152602001925080828437600081840152601f19601f82011690508083019250505094505050505060405180910390a450505050565b6000806123da83611642565b90506123e5816119b3565b80915050919050565b60056020528060005260406000206000915090505481565b600a60009054906101000a900473ffffffffffffffffffffffffffffffffffffffff1681565b60003073ffffffffffffffffffffffffffffffffffffffff168373ffffffffffffffffffffffffffffffffffffffff16141561246b576001905061267f565b600160009054906101000a900473ffffffffffffffffffffffffffffffffffffffff1673ffffffffffffffffffffffffffffffffffffffff168373ffffffffffffffffffffffffffffffffffffffff1614156124ca576001905061267f565b600073ffffffffffffffffffffffffffffffffffffffff166000809054906101000a900473ffffffffffffffffffffffffffffffffffffffff1673ffffffffffffffffffffffffffffffffffffffff161415612529576000905061267f565b6000809054906101000a900473ffffffffffffffffffffffffffffffffffffffff1673ffffffffffffffffffffffffffffffffffffffff1663b70096138430856040518463ffffffff1660e01b8152600401808473ffffffffffffffffffffffffffffffffffffffff1673ffffffffffffffffffffffffffffffffffffffff1681526020018373ffffffffffffffffffffffffffffffffffffffff1673ffffffffffffffffffffffffffffffffffffffff168152602001827bffffffffffffffffffffffffffffffffffffffffffffffffffffffff19167bffffffffffffffffffffffffffffffffffffffffffffffffffffffff19168152602001935050505060206040518083038186803b15801561264157600080fd5b505afa158015612655573d6000803e3d6000fd5b505050506040513d602081101561266b57600080fd5b810190808051906020019092919050505090505b92915050565b600060026000838152602001908152602001600020905060008090505b81805490508110156127b35761272d600460008484815481106126c157fe5b9060005260206000200160009054906101000a900473ffffffffffffffffffffffffffffffffffffffff1673ffffffffffffffffffffffffffffffffffffffff1673ffffffffffffffffffffffffffffffffffffffff168152602001908152602001600020548561298d565b6004600084848154811061273d57fe5b9060005260206000200160009054906101000a900473ffffffffffffffffffffffffffffffffffffffff1673ffffffffffffffffffffffffffffffffffffffff1673ffffffffffffffffffffffffffffffffffffffff1681526020019081526020016000208190555080806001019150506126a2565b50505050565b600060026000838152602001908152602001600020905060008090505b81805490508110156128e757612861600460008484815481106127f557fe5b9060005260206000200160009054906101000a900473ffffffffffffffffffffffffffffffffffffffff1673ffffffffffffffffffffffffffffffffffffffff1673ffffffffffffffffffffffffffffffffffffffff1681526020019081526020016000205485612a10565b6004600084848154811061287157fe5b9060005260206000200160009054906101000a900473ffffffffffffffffffffffffffffffffffffffff1673ffffffffffffffffffffffffffffffffffffffff1673ffffffffffffffffffffffffffffffffffffffff1681526020019081526020016000208190555080806001019150506127d6565b50505050565b6000815114806128fe575060018151145b156129085761298a565b60008090505b60018251038110156129885781600182018151811061292957fe5b602002602001015173ffffffffffffffffffffffffffffffffffffffff1682828151811061295357fe5b602002602001015173ffffffffffffffffffffffffffffffffffffffff161061297b57600080fd5b808060010191505061290e565b505b50565b6000828284039150811115612a0a576040517f08c379a00000000000000000000000000000000000000000000000000000000081526004018080602001828103825260158152602001807f64732d6d6174682d7375622d756e646572666c6f77000000000000000000000081525060200191505060405180910390fd5b92915050565b6000828284019150811015612a8d576040517f08c379a00000000000000000000000000000000000000000000000000000000081526004018080602001828103825260148152602001807f64732d6d6174682d6164642d6f766572666c6f7700000000000000000000000081525060200191505060405180910390fd5b92915050565b828054828255906000526020600020908101928215612b0c579160200282015b82811115612b0b5782518260006101000a81548173ffffffffffffffffffffffffffffffffffffffff021916908373ffffffffffffffffffffffffffffffffffffffff16021790555091602001919060010190612ab3565b5b509050612b199190612b1d565b5090565b612b5d91905b80821115612b5957600081816101000a81549073ffffffffffffffffffffffffffffffffffffffff021916905550600101612b23565b5090565b9056fe5468652070726f6f6620646f65736e277420636f72726573706f6e6420746f207468652064656c656761746f72a265627a7a723158201dfc44bdd631d882574cb6802e255612dc11a102d854e50e508086e1caa3173964736f6c63430005100032",
  "source": "// chief.sol - select an authority by consensus\n\n// Copyright (C) 2017  DappHub, LLC\n\n// This program is free software: you can redistribute it and/or modify\n// it under the terms of the GNU General Public License as published by\n// the Free Software Foundation, either version 3 of the License, or\n// (at your option) any later version.\n\n// This program is distributed in the hope that it will be useful,\n// but WITHOUT ANY WARRANTY; without even the implied warranty of\n// MERCHANTABILITY or FITNESS FOR A PARTICULAR PURPOSE.  See the\n// GNU General Public License for more details.\n\n// You should have received a copy of the GNU General Public License\n// along with this program.  If not, see <http://www.gnu.org/licenses/>.\n\npragma solidity >=0.4.23;\n\nimport './tokengov.sol';\nimport './tokeniou.sol';\nimport './roles.sol';\nimport './thing.sol';\nimport './secretVerifier.sol';\n\n// The right way to use this contract is probably to mix it with some kind\n// of `DSAuthority`, like with `ds-roles`.\n//   SEE DSChief\ncontract DSChiefApprovals is DSThing {\n    mapping(bytes32=>address[]) public slates;\n    mapping(address=>bytes32) public votes;\n    mapping(address=>uint256) public approvals;\n    mapping(address=>uint256) public deposits;\n    mapping(address=>bytes32) public secretHash;\n\n    SecretVerifier public verifier;\n    DSTokenGOV public GOV; // voting token that gets locked up\n    DSTokenIOU public IOU; // non-voting representation of a token, for e.g. secondary voting mechanisms\n    address public hat; // the chieftain's hat\n    address public verifierAddress;\n    uint256 public MAX_YAYS;\n\n    event Etch(bytes32 indexed slate);\n\n    // IOU constructed outside this contract reduces deployment costs significantly\n    // lock/free/vote are quite sensitive to token invariants. Caution is advised.\n    constructor(DSTokenGOV GOV_, DSTokenIOU IOU_, uint MAX_YAYS_) public\n    {\n        GOV = GOV_;\n        IOU = IOU_;\n        MAX_YAYS = MAX_YAYS_;\n    }\n\n    // function can be used to set the address of the Proof verifier Contract\n    function setVerifer(address _verifierAddress) public {\n        verifierAddress = _verifierAddress;\n        verifier = SecretVerifier(verifierAddress);\n    }\n\n    function setSecretHash(bytes32 _secretHash) public {\n        secretHash[msg.sender] = _secretHash;\n    }\n\n    function lock(uint wad)\n        public\n        note\n    {\n        GOV.pull(msg.sender, wad);\n        IOU.mint(msg.sender, wad);\n        deposits[msg.sender] = add(deposits[msg.sender], wad);\n        addWeight(wad, votes[msg.sender]);\n    }\n\n    function free(uint wad)\n        public\n        note\n    {\n        deposits[msg.sender] = sub(deposits[msg.sender], wad);\n        subWeight(wad, votes[msg.sender]);\n        IOU.burn(msg.sender, wad);\n        GOV.push(msg.sender, wad);\n    }\n\n    function etch(address[] memory yays)\n        public\n        note\n        returns (bytes32 slate)\n    {\n        require( yays.length <= MAX_YAYS );\n        requireByteOrderedSet(yays);\n        \n        bytes32 hash = keccak256(abi.encodePacked(yays));\n        slates[hash] = yays;\n        emit Etch(hash);\n        return hash;\n    }\n\n    function vote(address[] memory yays) public returns (bytes32)\n        // note  both sub-calls note\n    {\n        bytes32 slate = etch(yays);\n        vote(slate);\n        return slate;\n    }\n\n    function vote(bytes32 slate)\n        public\n        note\n    {\n        require(slates[slate].length > 0 ||\n            slate == 0xc5d2460186f7233c927e7db2dcc703c0e500b653ca82273b7bfad8045d85a470, \"ds-chief-invalid-slate\");\n        uint weight = deposits[msg.sender];\n        subWeight(weight, votes[msg.sender]);\n        votes[msg.sender] = slate;\n        addWeight(weight, votes[msg.sender]);\n    }\n\n    // function override, this vote function can be used by delegatee to vote on behalf of delegator\n    function delegateVote(address[] memory yays, address voteProxy, uint[2] memory a,\n            uint[2][2] memory b,\n            uint[2] memory c,\n            uint[3] memory input\n        ) public returns (bytes32)\n        // note  both sub-calls note\n    {\n\n        bytes32 slate = etch(yays);\n        delegateVote(slate, voteProxy, a, b, c, input);\n        return slate;\n    }\n    // function override. this function can be used by the delegatee to vote on behalf of delegator directly\n    // using slate\n    function delegateVote(bytes32 slate, address voteProxy, uint[2] memory a,\n            uint[2][2] memory b,\n            uint[2] memory c,\n            uint[3] memory input)\n        public\n        note\n    {\n        require(slates[slate].length > 0 ||\n            slate == 0xc5d2460186f7233c927e7db2dcc703c0e500b653ca82273b7bfad8045d85a470, \"ds-chief-invalid-slate\");\n        \n        require(checkInput(voteProxy, input[0], input[1]), \"The proof doesn't correspond to the delegator\");\n        require(verifier.verifyTx(a, b, c, input), \"The proof is not valid\");\n        uint weight = deposits[voteProxy];\n        subWeight(weight, votes[voteProxy]);\n        votes[voteProxy] = slate;\n        addWeight(weight, votes[voteProxy]);\n    }\n\n    // This function makes sure the proof is generated by the delegator itself. Not checking this might result\n    // in generation of fake proofs.\n    function checkInput(address voteProxy,uint input1, uint input2) public view returns (bool) {\n\n        uint a = input1 * 2**128;\n        uint c = a | input2;\n        if (bytes32(c)==secretHash[voteProxy]){\n            return true;\n        }\n        else{\n            return false;\n        }\n    }\n    // like `drop`/`swap` except simply \"elect this address if it is higher than current hat\"\n    function lift(address whom)\n        public\n        note\n    {\n        require(approvals[whom] > approvals[hat]);\n        hat = whom;\n    }\n\n    function addWeight(uint weight, bytes32 slate)\n        internal\n    {\n        address[] storage yays = slates[slate];\n        for( uint i = 0; i < yays.length; i++) {\n            approvals[yays[i]] = add(approvals[yays[i]], weight);\n        }\n    }\n\n    function subWeight(uint weight, bytes32 slate)\n        internal\n    {\n        address[] storage yays = slates[slate];\n        for( uint i = 0; i < yays.length; i++) {\n            approvals[yays[i]] = sub(approvals[yays[i]], weight);\n        }\n    }\n\n    // Throws unless the array of addresses is a ordered set.\n    function requireByteOrderedSet(address[] memory yays)\n        internal\n        pure\n    {\n        if( yays.length == 0 || yays.length == 1 ) {\n            return;\n        }\n        for( uint i = 0; i < yays.length - 1; i++ ) {\n            // strict inequality ensures both ordering and uniqueness\n            require(uint(yays[i]) < uint(yays[i+1]));\n        }\n    }\n}\n\n\n// `hat` address is unique root user (has every role) and the\n// unique owner of role 0 (typically 'sys' or 'internal')\ncontract DSChief is DSRoles, DSChiefApprovals {\n\n    constructor(DSTokenGOV GOV, DSTokenIOU IOU, uint MAX_YAYS)\n             DSChiefApprovals (GOV, IOU, MAX_YAYS)\n        public\n    {\n        authority = this;\n        owner = address(0);\n    }\n\n    // function setOwner(address owner_) public {\n    //     owner_;\n    //     revert();\n    // }\n\n    // function setAuthority(DSAuthority authority_) public {\n    //     authority_;\n    //     revert();\n    // }\n\n    // function isUserRoot(address who)\n    //     public view\n    //     returns (bool)\n    // {\n    //     return (who == hat);\n    // }\n    // function setRootUser(address who, bool enabled) public {\n    //     who; enabled;\n    //     revert();\n    // }\n}\n\n// contract DSChiefFab {\n//     function newChief(DSToken gov, uint MAX_YAYS) public returns (DSChief chief) {\n//         DSToken iou = new DSToken('IOU');\n//         chief = new DSChief(gov, iou, MAX_YAYS);\n//         iou.setOwner(address(chief));\n//     }\n",
  "sourcePath": "/home/akash/Videos/Private-delegation-Maker-Governance/maker/contracts/chief.sol",
  "compiler": {
    "name": "solc",
    "version": "0.5.16+commit.9c3226ce.Emscripten.clang"
  },
  "schemaVersion": "3.0.23",
  "updatedAt": "2020-06-25T02:45:31.318Z",
  "devdoc": {
    "methods": {}
  },
  "userdoc": {
    "methods": {}
  }
}