{
  "contractName": "DSRoles",
  "abi": [
    {
      "anonymous": false,
      "inputs": [
        {
          "indexed": true,
          "internalType": "address",
          "name": "authority",
          "type": "address"
        }
      ],
      "name": "LogSetAuthority",
      "type": "event"
    },
    {
      "anonymous": false,
      "inputs": [
        {
          "indexed": true,
          "internalType": "address",
          "name": "owner",
          "type": "address"
        }
      ],
      "name": "LogSetOwner",
      "type": "event"
    },
    {
      "constant": true,
      "inputs": [],
      "name": "authority",
      "outputs": [
        {
          "internalType": "contract DSAuthority",
          "name": "",
          "type": "address"
        }
      ],
      "payable": false,
      "stateMutability": "view",
      "type": "function"
    },
    {
      "constant": true,
      "inputs": [],
      "name": "owner",
      "outputs": [
        {
          "internalType": "address",
          "name": "",
          "type": "address"
        }
      ],
      "payable": false,
      "stateMutability": "view",
      "type": "function"
    },
    {
      "constant": false,
      "inputs": [
        {
          "internalType": "contract DSAuthority",
          "name": "authority_",
          "type": "address"
        }
      ],
      "name": "setAuthority",
      "outputs": [],
      "payable": false,
      "stateMutability": "nonpayable",
      "type": "function"
    },
    {
      "constant": false,
      "inputs": [
        {
          "internalType": "address",
          "name": "owner_",
          "type": "address"
        }
      ],
      "name": "setOwner",
      "outputs": [],
      "payable": false,
      "stateMutability": "nonpayable",
      "type": "function"
    },
    {
      "constant": true,
      "inputs": [
        {
          "internalType": "address",
          "name": "who",
          "type": "address"
        }
      ],
      "name": "getUserRoles",
      "outputs": [
        {
          "internalType": "bytes32",
          "name": "",
          "type": "bytes32"
        }
      ],
      "payable": false,
      "stateMutability": "view",
      "type": "function"
    },
    {
      "constant": true,
      "inputs": [
        {
          "internalType": "address",
          "name": "code",
          "type": "address"
        },
        {
          "internalType": "bytes4",
          "name": "sig",
          "type": "bytes4"
        }
      ],
      "name": "getCapabilityRoles",
      "outputs": [
        {
          "internalType": "bytes32",
          "name": "",
          "type": "bytes32"
        }
      ],
      "payable": false,
      "stateMutability": "view",
      "type": "function"
    },
    {
      "constant": true,
      "inputs": [
        {
          "internalType": "address",
          "name": "who",
          "type": "address"
        }
      ],
      "name": "isUserRoot",
      "outputs": [
        {
          "internalType": "bool",
          "name": "",
          "type": "bool"
        }
      ],
      "payable": false,
      "stateMutability": "view",
      "type": "function"
    },
    {
      "constant": true,
      "inputs": [
        {
          "internalType": "address",
          "name": "code",
          "type": "address"
        },
        {
          "internalType": "bytes4",
          "name": "sig",
          "type": "bytes4"
        }
      ],
      "name": "isCapabilityPublic",
      "outputs": [
        {
          "internalType": "bool",
          "name": "",
          "type": "bool"
        }
      ],
      "payable": false,
      "stateMutability": "view",
      "type": "function"
    },
    {
      "constant": true,
      "inputs": [
        {
          "internalType": "address",
          "name": "who",
          "type": "address"
        },
        {
          "internalType": "uint8",
          "name": "role",
          "type": "uint8"
        }
      ],
      "name": "hasUserRole",
      "outputs": [
        {
          "internalType": "bool",
          "name": "",
          "type": "bool"
        }
      ],
      "payable": false,
      "stateMutability": "view",
      "type": "function"
    },
    {
      "constant": true,
      "inputs": [
        {
          "internalType": "address",
          "name": "caller",
          "type": "address"
        },
        {
          "internalType": "address",
          "name": "code",
          "type": "address"
        },
        {
          "internalType": "bytes4",
          "name": "sig",
          "type": "bytes4"
        }
      ],
      "name": "canCall",
      "outputs": [
        {
          "internalType": "bool",
          "name": "",
          "type": "bool"
        }
      ],
      "payable": false,
      "stateMutability": "view",
      "type": "function"
    },
    {
      "constant": false,
      "inputs": [
        {
          "internalType": "address",
          "name": "who",
          "type": "address"
        },
        {
          "internalType": "bool",
          "name": "enabled",
          "type": "bool"
        }
      ],
      "name": "setRootUser",
      "outputs": [],
      "payable": false,
      "stateMutability": "nonpayable",
      "type": "function"
    },
    {
      "constant": false,
      "inputs": [
        {
          "internalType": "address",
          "name": "who",
          "type": "address"
        },
        {
          "internalType": "uint8",
          "name": "role",
          "type": "uint8"
        },
        {
          "internalType": "bool",
          "name": "enabled",
          "type": "bool"
        }
      ],
      "name": "setUserRole",
      "outputs": [],
      "payable": false,
      "stateMutability": "nonpayable",
      "type": "function"
    },
    {
      "constant": false,
      "inputs": [
        {
          "internalType": "address",
          "name": "code",
          "type": "address"
        },
        {
          "internalType": "bytes4",
          "name": "sig",
          "type": "bytes4"
        },
        {
          "internalType": "bool",
          "name": "enabled",
          "type": "bool"
        }
      ],
      "name": "setPublicCapability",
      "outputs": [],
      "payable": false,
      "stateMutability": "nonpayable",
      "type": "function"
    },
    {
      "constant": false,
      "inputs": [
        {
          "internalType": "uint8",
          "name": "role",
          "type": "uint8"
        },
        {
          "internalType": "address",
          "name": "code",
          "type": "address"
        },
        {
          "internalType": "bytes4",
          "name": "sig",
          "type": "bytes4"
        },
        {
          "internalType": "bool",
          "name": "enabled",
          "type": "bool"
        }
      ],
      "name": "setRoleCapability",
      "outputs": [],
      "payable": false,
      "stateMutability": "nonpayable",
      "type": "function"
    }
  ],
  "bytecode": "0x608060405233600160006101000a81548173ffffffffffffffffffffffffffffffffffffffff021916908373ffffffffffffffffffffffffffffffffffffffff1602179055503373ffffffffffffffffffffffffffffffffffffffff167fce241d7ca1f669fee44b6fc00b8eba2df3bb514eed0f6f668f8f89096e81ed9460405160405180910390a26114e4806100976000396000f3fe608060405234801561001057600080fd5b50600436106100ea5760003560e01c80638da5cb5b1161008c578063bf7e214f11610066578063bf7e214f14610510578063c6b0263e1461055a578063d381ba7c146105d3578063fbf8077314610623576100ea565b80638da5cb5b146103b8578063a078f73714610402578063b70096131461046b576100ea565b80632f47571f116100c85780632f47571f1461020c57806367aff484146102915780637a9e5e4b146102ee5780637d40583d14610332576100ea565b806306a36aee146100ef57806313af40351461014757806327538e901461018b575b600080fd5b6101316004803603602081101561010557600080fd5b81019080803573ffffffffffffffffffffffffffffffffffffffff16906020019092919050505061067f565b6040518082815260200191505060405180910390f35b6101896004803603602081101561015d57600080fd5b81019080803573ffffffffffffffffffffffffffffffffffffffff1690602001909291905050506106c8565b005b6101f6600480360360408110156101a157600080fd5b81019080803573ffffffffffffffffffffffffffffffffffffffff16906020019092919080357bffffffffffffffffffffffffffffffffffffffffffffffffffffffff19169060200190929190505050610811565b6040518082815260200191505060405180910390f35b6102776004803603604081101561022257600080fd5b81019080803573ffffffffffffffffffffffffffffffffffffffff16906020019092919080357bffffffffffffffffffffffffffffffffffffffffffffffffffffffff191690602001909291905050506108aa565b604051808215151515815260200191505060405180910390f35b6102ec600480360360608110156102a757600080fd5b81019080803573ffffffffffffffffffffffffffffffffffffffff169060200190929190803560ff169060200190929190803515159060200190929190505050610950565b005b6103306004803603602081101561030457600080fd5b81019080803573ffffffffffffffffffffffffffffffffffffffff169060200190929190505050610ae9565b005b6103b66004803603608081101561034857600080fd5b81019080803560ff169060200190929190803573ffffffffffffffffffffffffffffffffffffffff16906020019092919080357bffffffffffffffffffffffffffffffffffffffffffffffffffffffff19169060200190929190803515159060200190929190505050610c30565b005b6103c0610eb7565b604051808273ffffffffffffffffffffffffffffffffffffffff1673ffffffffffffffffffffffffffffffffffffffff16815260200191505060405180910390f35b6104516004803603604081101561041857600080fd5b81019080803573ffffffffffffffffffffffffffffffffffffffff169060200190929190803560ff169060200190929190505050610edd565b604051808215151515815260200191505060405180910390f35b6104f66004803603606081101561048157600080fd5b81019080803573ffffffffffffffffffffffffffffffffffffffff169060200190929190803573ffffffffffffffffffffffffffffffffffffffff16906020019092919080357bffffffffffffffffffffffffffffffffffffffffffffffffffffffff19169060200190929190505050610f0c565b604051808215151515815260200191505060405180910390f35b610518610f66565b604051808273ffffffffffffffffffffffffffffffffffffffff1673ffffffffffffffffffffffffffffffffffffffff16815260200191505060405180910390f35b6105d16004803603606081101561057057600080fd5b81019080803573ffffffffffffffffffffffffffffffffffffffff16906020019092919080357bffffffffffffffffffffffffffffffffffffffffffffffffffffffff19169060200190929190803515159060200190929190505050610f8b565b005b610621600480360360408110156105e957600080fd5b81019080803573ffffffffffffffffffffffffffffffffffffffff1690602001909291908035151590602001909291905050506110d6565b005b6106656004803603602081101561063957600080fd5b81019080803573ffffffffffffffffffffffffffffffffffffffff1690602001909291905050506111d1565b604051808215151515815260200191505060405180910390f35b6000600360008373ffffffffffffffffffffffffffffffffffffffff1673ffffffffffffffffffffffffffffffffffffffff168152602001908152602001600020549050919050565b6106f6336000357fffffffff0000000000000000000000000000000000000000000000000000000016611227565b610768576040517f08c379a00000000000000000000000000000000000000000000000000000000081526004018080602001828103825260148152602001807f64732d617574682d756e617574686f72697a656400000000000000000000000081525060200191505060405180910390fd5b80600160006101000a81548173ffffffffffffffffffffffffffffffffffffffff021916908373ffffffffffffffffffffffffffffffffffffffff160217905550600160009054906101000a900473ffffffffffffffffffffffffffffffffffffffff1673ffffffffffffffffffffffffffffffffffffffff167fce241d7ca1f669fee44b6fc00b8eba2df3bb514eed0f6f668f8f89096e81ed9460405160405180910390a250565b6000600460008473ffffffffffffffffffffffffffffffffffffffff1673ffffffffffffffffffffffffffffffffffffffff1681526020019081526020016000206000837bffffffffffffffffffffffffffffffffffffffffffffffffffffffff19167bffffffffffffffffffffffffffffffffffffffffffffffffffffffff1916815260200190815260200160002054905092915050565b6000600560008473ffffffffffffffffffffffffffffffffffffffff1673ffffffffffffffffffffffffffffffffffffffff1681526020019081526020016000206000837bffffffffffffffffffffffffffffffffffffffffffffffffffffffff19167bffffffffffffffffffffffffffffffffffffffffffffffffffffffff1916815260200190815260200160002060009054906101000a900460ff16905092915050565b61097e336000357fffffffff0000000000000000000000000000000000000000000000000000000016611227565b6109f0576040517f08c379a00000000000000000000000000000000000000000000000000000000081526004018080602001828103825260148152602001807f64732d617574682d756e617574686f72697a656400000000000000000000000081525060200191505060405180910390fd5b6000600360008573ffffffffffffffffffffffffffffffffffffffff1673ffffffffffffffffffffffffffffffffffffffff16815260200190815260200160002054905060008360ff1660020a60001b90508215610a9357808217600360008773ffffffffffffffffffffffffffffffffffffffff1673ffffffffffffffffffffffffffffffffffffffff16815260200190815260200160002081905550610ae2565b610a9c81611480565b8216600360008773ffffffffffffffffffffffffffffffffffffffff1673ffffffffffffffffffffffffffffffffffffffff168152602001908152602001600020819055505b5050505050565b610b17336000357fffffffff0000000000000000000000000000000000000000000000000000000016611227565b610b89576040517f08c379a00000000000000000000000000000000000000000000000000000000081526004018080602001828103825260148152602001807f64732d617574682d756e617574686f72697a656400000000000000000000000081525060200191505060405180910390fd5b806000806101000a81548173ffffffffffffffffffffffffffffffffffffffff021916908373ffffffffffffffffffffffffffffffffffffffff1602179055506000809054906101000a900473ffffffffffffffffffffffffffffffffffffffff1673ffffffffffffffffffffffffffffffffffffffff167f1abebea81bfa2637f28358c371278fb15ede7ea8dd28d2e03b112ff6d936ada460405160405180910390a250565b610c5e336000357fffffffff0000000000000000000000000000000000000000000000000000000016611227565b610cd0576040517f08c379a00000000000000000000000000000000000000000000000000000000081526004018080602001828103825260148152602001807f64732d617574682d756e617574686f72697a656400000000000000000000000081525060200191505060405180910390fd5b6000600460008573ffffffffffffffffffffffffffffffffffffffff1673ffffffffffffffffffffffffffffffffffffffff1681526020019081526020016000206000847bffffffffffffffffffffffffffffffffffffffffffffffffffffffff19167bffffffffffffffffffffffffffffffffffffffffffffffffffffffff1916815260200190815260200160002054905060008560ff1660020a60001b90508215610e1157808217600460008773ffffffffffffffffffffffffffffffffffffffff1673ffffffffffffffffffffffffffffffffffffffff1681526020019081526020016000206000867bffffffffffffffffffffffffffffffffffffffffffffffffffffffff19167bffffffffffffffffffffffffffffffffffffffffffffffffffffffff1916815260200190815260200160002081905550610eaf565b610e1a81611480565b8216600460008773ffffffffffffffffffffffffffffffffffffffff1673ffffffffffffffffffffffffffffffffffffffff1681526020019081526020016000206000867bffffffffffffffffffffffffffffffffffffffffffffffffffffffff19167bffffffffffffffffffffffffffffffffffffffffffffffffffffffff19168152602001908152602001600020819055505b505050505050565b600160009054906101000a900473ffffffffffffffffffffffffffffffffffffffff1681565b600080610ee98461067f565b905060008360ff1660020a60001b90508082166000801b14159250505092915050565b6000610f17846111d1565b80610f285750610f2783836108aa565b5b15610f365760019050610f5f565b6000610f418561067f565b90506000610f4f8585610811565b90508082166000801b1415925050505b9392505050565b6000809054906101000a900473ffffffffffffffffffffffffffffffffffffffff1681565b610fb9336000357fffffffff0000000000000000000000000000000000000000000000000000000016611227565b61102b576040517f08c379a00000000000000000000000000000000000000000000000000000000081526004018080602001828103825260148152602001807f64732d617574682d756e617574686f72697a656400000000000000000000000081525060200191505060405180910390fd5b80600560008573ffffffffffffffffffffffffffffffffffffffff1673ffffffffffffffffffffffffffffffffffffffff1681526020019081526020016000206000847bffffffffffffffffffffffffffffffffffffffffffffffffffffffff19167bffffffffffffffffffffffffffffffffffffffffffffffffffffffff1916815260200190815260200160002060006101000a81548160ff021916908315150217905550505050565b611104336000357fffffffff0000000000000000000000000000000000000000000000000000000016611227565b611176576040517f08c379a00000000000000000000000000000000000000000000000000000000081526004018080602001828103825260148152602001807f64732d617574682d756e617574686f72697a656400000000000000000000000081525060200191505060405180910390fd5b80600260008473ffffffffffffffffffffffffffffffffffffffff1673ffffffffffffffffffffffffffffffffffffffff16815260200190815260200160002060006101000a81548160ff0219169083151502179055505050565b6000600260008373ffffffffffffffffffffffffffffffffffffffff1673ffffffffffffffffffffffffffffffffffffffff16815260200190815260200160002060009054906101000a900460ff169050919050565b60003073ffffffffffffffffffffffffffffffffffffffff168373ffffffffffffffffffffffffffffffffffffffff161415611266576001905061147a565b600160009054906101000a900473ffffffffffffffffffffffffffffffffffffffff1673ffffffffffffffffffffffffffffffffffffffff168373ffffffffffffffffffffffffffffffffffffffff1614156112c5576001905061147a565b600073ffffffffffffffffffffffffffffffffffffffff166000809054906101000a900473ffffffffffffffffffffffffffffffffffffffff1673ffffffffffffffffffffffffffffffffffffffff161415611324576000905061147a565b6000809054906101000a900473ffffffffffffffffffffffffffffffffffffffff1673ffffffffffffffffffffffffffffffffffffffff1663b70096138430856040518463ffffffff1660e01b8152600401808473ffffffffffffffffffffffffffffffffffffffff1673ffffffffffffffffffffffffffffffffffffffff1681526020018373ffffffffffffffffffffffffffffffffffffffff1673ffffffffffffffffffffffffffffffffffffffff168152602001827bffffffffffffffffffffffffffffffffffffffffffffffffffffffff19167bffffffffffffffffffffffffffffffffffffffffffffffffffffffff19168152602001935050505060206040518083038186803b15801561143c57600080fd5b505afa158015611450573d6000803e3d6000fd5b505050506040513d602081101561146657600080fd5b810190808051906020019092919050505090505b92915050565b60007fffffffffffffffffffffffffffffffffffffffffffffffffffffffffffffffff60001b8218905091905056fea265627a7a72315820db7946730bbcdd76da9c585a7585f32124d88b9571d03635794aeaf6bc12a4bd64736f6c63430005100032",
  "source": "// roles.sol - roled based authentication\n\n// Copyright (C) 2017  DappHub, LLC\n\n// This program is free software: you can redistribute it and/or modify\n// it under the terms of the GNU General Public License as published by\n// the Free Software Foundation, either version 3 of the License, or\n// (at your option) any later version.\n\n// This program is distributed in the hope that it will be useful,\n// but WITHOUT ANY WARRANTY; without even the implied warranty of\n// MERCHANTABILITY or FITNESS FOR A PARTICULAR PURPOSE.  See the\n// GNU General Public License for more details.\n\n// You should have received a copy of the GNU General Public License\n// along with this program.  If not, see <http://www.gnu.org/licenses/>.\n\npragma solidity >=0.4.23;\n\nimport './auth.sol';\n\ncontract DSRoles is DSAuth, DSAuthority\n{\n    mapping(address=>bool) _root_users;\n    mapping(address=>bytes32) _user_roles;\n    mapping(address=>mapping(bytes4=>bytes32)) _capability_roles;\n    mapping(address=>mapping(bytes4=>bool)) _public_capabilities;\n\n    function getUserRoles(address who)\n        public\n        view\n        returns (bytes32)\n    {\n        return _user_roles[who];\n    }\n\n    function getCapabilityRoles(address code, bytes4 sig)\n        public\n        view\n        returns (bytes32)\n    {\n        return _capability_roles[code][sig];\n    }\n\n    function isUserRoot(address who)\n        public\n        view\n        returns (bool)\n    {\n        return _root_users[who];\n    }\n\n    function isCapabilityPublic(address code, bytes4 sig)\n        public\n        view\n        returns (bool)\n    {\n        return _public_capabilities[code][sig];\n    }\n\n    function hasUserRole(address who, uint8 role)\n        public\n        view\n        returns (bool)\n    {\n        bytes32 roles = getUserRoles(who);\n        bytes32 shifted = bytes32(uint256(uint256(2) ** uint256(role)));\n        return bytes32(0) != roles & shifted;\n    }\n\n    function canCall(address caller, address code, bytes4 sig)\n        public\n        view\n        returns (bool)\n    {\n        if( isUserRoot(caller) || isCapabilityPublic(code, sig) ) {\n            return true;\n        } else {\n            bytes32 has_roles = getUserRoles(caller);\n            bytes32 needs_one_of = getCapabilityRoles(code, sig);\n            return bytes32(0) != has_roles & needs_one_of;\n        }\n    }\n\n    function BITNOT(bytes32 input) internal pure returns (bytes32 output) {\n        return (input ^ bytes32(uint(-1)));\n    }\n\n    function setRootUser(address who, bool enabled)\n        public\n        auth\n    {\n        _root_users[who] = enabled;\n    }\n\n    function setUserRole(address who, uint8 role, bool enabled)\n        public\n        auth\n    {\n        bytes32 last_roles = _user_roles[who];\n        bytes32 shifted = bytes32(uint256(uint256(2) ** uint256(role)));\n        if( enabled ) {\n            _user_roles[who] = last_roles | shifted;\n        } else {\n            _user_roles[who] = last_roles & BITNOT(shifted);\n        }\n    }\n\n    function setPublicCapability(address code, bytes4 sig, bool enabled)\n        public\n        auth\n    {\n        _public_capabilities[code][sig] = enabled;\n    }\n\n    function setRoleCapability(uint8 role, address code, bytes4 sig, bool enabled)\n        public\n        auth\n    {\n        bytes32 last_roles = _capability_roles[code][sig];\n        bytes32 shifted = bytes32(uint256(uint256(2) ** uint256(role)));\n        if( enabled ) {\n            _capability_roles[code][sig] = last_roles | shifted;\n        } else {\n            _capability_roles[code][sig] = last_roles & BITNOT(shifted);\n        }\n\n    }\n\n}",
  "sourcePath": "/home/akash/Videos/Private-delegation-Maker-Governance/maker/contracts/roles.sol",
  "compiler": {
    "name": "solc",
    "version": "0.5.16+commit.9c3226ce.Emscripten.clang"
  },
  "schemaVersion": "3.0.23",
  "updatedAt": "2020-06-24T09:17:28.394Z",
  "devdoc": {
    "methods": {}
  },
  "userdoc": {
    "methods": {}
  }
}