{
  "contractName": "VoteProxy",
  "abi": [
    {
      "inputs": [
        {
          "internalType": "contract DSChief",
          "name": "_chief",
          "type": "address"
        },
        {
          "internalType": "address",
          "name": "_cold",
          "type": "address"
        },
        {
          "internalType": "address",
          "name": "_hot",
          "type": "address"
        }
      ],
      "payable": false,
      "stateMutability": "nonpayable",
      "type": "constructor"
    },
    {
      "constant": true,
      "inputs": [],
      "name": "chief",
      "outputs": [
        {
          "internalType": "contract DSChief",
          "name": "",
          "type": "address"
        }
      ],
      "payable": false,
      "stateMutability": "view",
      "type": "function"
    },
    {
      "constant": true,
      "inputs": [],
      "name": "cold",
      "outputs": [
        {
          "internalType": "address",
          "name": "",
          "type": "address"
        }
      ],
      "payable": false,
      "stateMutability": "view",
      "type": "function"
    },
    {
      "constant": true,
      "inputs": [],
      "name": "gov",
      "outputs": [
        {
          "internalType": "contract DSToken",
          "name": "",
          "type": "address"
        }
      ],
      "payable": false,
      "stateMutability": "view",
      "type": "function"
    },
    {
      "constant": true,
      "inputs": [],
      "name": "hot",
      "outputs": [
        {
          "internalType": "address",
          "name": "",
          "type": "address"
        }
      ],
      "payable": false,
      "stateMutability": "view",
      "type": "function"
    },
    {
      "constant": true,
      "inputs": [],
      "name": "iou",
      "outputs": [
        {
          "internalType": "contract DSToken",
          "name": "",
          "type": "address"
        }
      ],
      "payable": false,
      "stateMutability": "view",
      "type": "function"
    },
    {
      "constant": true,
      "inputs": [],
      "name": "secretHash",
      "outputs": [
        {
          "internalType": "uint256",
          "name": "",
          "type": "uint256"
        }
      ],
      "payable": false,
      "stateMutability": "view",
      "type": "function"
    },
    {
      "constant": false,
      "inputs": [
        {
          "internalType": "uint256",
          "name": "wad",
          "type": "uint256"
        }
      ],
      "name": "lock",
      "outputs": [],
      "payable": false,
      "stateMutability": "nonpayable",
      "type": "function"
    },
    {
      "constant": false,
      "inputs": [
        {
          "internalType": "uint256",
          "name": "wad",
          "type": "uint256"
        }
      ],
      "name": "free",
      "outputs": [],
      "payable": false,
      "stateMutability": "nonpayable",
      "type": "function"
    },
    {
      "constant": false,
      "inputs": [],
      "name": "freeAll",
      "outputs": [],
      "payable": false,
      "stateMutability": "nonpayable",
      "type": "function"
    },
    {
      "constant": false,
      "inputs": [
        {
          "internalType": "bytes32",
          "name": "slate",
          "type": "bytes32"
        }
      ],
      "name": "vote",
      "outputs": [],
      "payable": false,
      "stateMutability": "nonpayable",
      "type": "function"
    },
    {
      "constant": false,
      "inputs": [
        {
          "internalType": "address[]",
          "name": "yays",
          "type": "address[]"
        }
      ],
      "name": "vote",
      "outputs": [
        {
          "internalType": "bytes32",
          "name": "",
          "type": "bytes32"
        }
      ],
      "payable": false,
      "stateMutability": "nonpayable",
      "type": "function"
    },
    {
      "constant": false,
      "inputs": [
        {
          "internalType": "uint256",
          "name": "_secretHash",
          "type": "uint256"
        }
      ],
      "name": "setSecret",
      "outputs": [],
      "payable": false,
      "stateMutability": "nonpayable",
      "type": "function"
    }
  ],
  "bytecode": "0x60806040523480156200001157600080fd5b50604051620016cf380380620016cf833981810160405260608110156200003757600080fd5b8101908080519060200190929190805190602001909291908051906020019092919050505082600460006101000a81548173ffffffffffffffffffffffffffffffffffffffff021916908373ffffffffffffffffffffffffffffffffffffffff160217905550816000806101000a81548173ffffffffffffffffffffffffffffffffffffffff021916908373ffffffffffffffffffffffffffffffffffffffff16021790555080600160006101000a81548173ffffffffffffffffffffffffffffffffffffffff021916908373ffffffffffffffffffffffffffffffffffffffff160217905550600460009054906101000a900473ffffffffffffffffffffffffffffffffffffffff1673ffffffffffffffffffffffffffffffffffffffff1663180cb47f6040518163ffffffff1660e01b815260040160206040518083038186803b1580156200018757600080fd5b505afa1580156200019c573d6000803e3d6000fd5b505050506040513d6020811015620001b357600080fd5b8101908080519060200190929190505050600260006101000a81548173ffffffffffffffffffffffffffffffffffffffff021916908373ffffffffffffffffffffffffffffffffffffffff160217905550600460009054906101000a900473ffffffffffffffffffffffffffffffffffffffff1673ffffffffffffffffffffffffffffffffffffffff1663046c472f6040518163ffffffff1660e01b815260040160206040518083038186803b1580156200026d57600080fd5b505afa15801562000282573d6000803e3d6000fd5b505050506040513d60208110156200029957600080fd5b8101908080519060200190929190505050600360006101000a81548173ffffffffffffffffffffffffffffffffffffffff021916908373ffffffffffffffffffffffffffffffffffffffff160217905550600260009054906101000a900473ffffffffffffffffffffffffffffffffffffffff1673ffffffffffffffffffffffffffffffffffffffff1663095ea7b3600460009054906101000a900473ffffffffffffffffffffffffffffffffffffffff167fffffffffffffffffffffffffffffffffffffffffffffffffffffffffffffffff6040518363ffffffff1660e01b8152600401808373ffffffffffffffffffffffffffffffffffffffff1673ffffffffffffffffffffffffffffffffffffffff16815260200182815260200192505050602060405180830381600087803b158015620003d657600080fd5b505af1158015620003eb573d6000803e3d6000fd5b505050506040513d60208110156200040257600080fd5b810190808051906020019092919050505050600360009054906101000a900473ffffffffffffffffffffffffffffffffffffffff1673ffffffffffffffffffffffffffffffffffffffff1663095ea7b3600460009054906101000a900473ffffffffffffffffffffffffffffffffffffffff167fffffffffffffffffffffffffffffffffffffffffffffffffffffffffffffffff6040518363ffffffff1660e01b8152600401808373ffffffffffffffffffffffffffffffffffffffff1673ffffffffffffffffffffffffffffffffffffffff16815260200182815260200192505050602060405180830381600087803b1580156200050057600080fd5b505af115801562000515573d6000803e3d6000fd5b505050506040513d60208110156200052c57600080fd5b81019080805190602001909291905050505050505061117e80620005516000396000f3fe608060405234801561001057600080fd5b50600436106100b45760003560e01c8063d29e680311610071578063d29e6803146101fd578063d8ccd0f31461021b578063dd46706414610249578063dde9c29714610277578063ed081329146102c1578063ffd864d31461038d576100b4565b806312d43a51146100b95780633b4dbf8b14610103578063578e9dc5146101315780635c38f3d11461017b578063a2fca6b314610185578063a69beaba146101cf575b600080fd5b6100c16103d7565b604051808273ffffffffffffffffffffffffffffffffffffffff1673ffffffffffffffffffffffffffffffffffffffff16815260200191505060405180910390f35b61012f6004803603602081101561011957600080fd5b81019080803590602001909291905050506103fd565b005b610139610407565b604051808273ffffffffffffffffffffffffffffffffffffffff1673ffffffffffffffffffffffffffffffffffffffff16815260200191505060405180910390f35b61018361042c565b005b61018d61084c565b604051808273ffffffffffffffffffffffffffffffffffffffff1673ffffffffffffffffffffffffffffffffffffffff16815260200191505060405180910390f35b6101fb600480360360208110156101e557600080fd5b8101908080359060200190929190505050610872565b005b6102056109ff565b6040518082815260200191505060405180910390f35b6102476004803603602081101561023157600080fd5b8101908080359060200190929190505050610a05565b005b6102756004803603602081101561025f57600080fd5b8101908080359060200190929190505050610c74565b005b61027f610ee3565b604051808273ffffffffffffffffffffffffffffffffffffffff1673ffffffffffffffffffffffffffffffffffffffff16815260200191505060405180910390f35b610377600480360360208110156102d757600080fd5b81019080803590602001906401000000008111156102f457600080fd5b82018360208201111561030657600080fd5b8035906020019184602083028401116401000000008311171561032857600080fd5b919080806020026020016040519081016040528093929190818152602001838360200280828437600081840152601f19601f820116905080830192505050505050509192919290505050610f09565b6040518082815260200191505060405180910390f35b610395611100565b604051808273ffffffffffffffffffffffffffffffffffffffff1673ffffffffffffffffffffffffffffffffffffffff16815260200191505060405180910390f35b600260009054906101000a900473ffffffffffffffffffffffffffffffffffffffff1681565b8060058190555050565b6000809054906101000a900473ffffffffffffffffffffffffffffffffffffffff1681565b600160009054906101000a900473ffffffffffffffffffffffffffffffffffffffff1673ffffffffffffffffffffffffffffffffffffffff163373ffffffffffffffffffffffffffffffffffffffff1614806104d457506000809054906101000a900473ffffffffffffffffffffffffffffffffffffffff1673ffffffffffffffffffffffffffffffffffffffff163373ffffffffffffffffffffffffffffffffffffffff16145b610529576040517f08c379a00000000000000000000000000000000000000000000000000000000081526004018080602001828103825260238152602001806111276023913960400191505060405180910390fd5b600460009054906101000a900473ffffffffffffffffffffffffffffffffffffffff1673ffffffffffffffffffffffffffffffffffffffff1663d8ccd0f3600460009054906101000a900473ffffffffffffffffffffffffffffffffffffffff1673ffffffffffffffffffffffffffffffffffffffff1663fc7e286d306040518263ffffffff1660e01b8152600401808273ffffffffffffffffffffffffffffffffffffffff1673ffffffffffffffffffffffffffffffffffffffff16815260200191505060206040518083038186803b15801561060657600080fd5b505afa15801561061a573d6000803e3d6000fd5b505050506040513d602081101561063057600080fd5b81019080805190602001909291905050506040518263ffffffff1660e01b815260040180828152602001915050600060405180830381600087803b15801561067757600080fd5b505af115801561068b573d6000803e3d6000fd5b50505050600260009054906101000a900473ffffffffffffffffffffffffffffffffffffffff1673ffffffffffffffffffffffffffffffffffffffff1663b753a98c6000809054906101000a900473ffffffffffffffffffffffffffffffffffffffff16600260009054906101000a900473ffffffffffffffffffffffffffffffffffffffff1673ffffffffffffffffffffffffffffffffffffffff166370a08231306040518263ffffffff1660e01b8152600401808273ffffffffffffffffffffffffffffffffffffffff1673ffffffffffffffffffffffffffffffffffffffff16815260200191505060206040518083038186803b15801561078e57600080fd5b505afa1580156107a2573d6000803e3d6000fd5b505050506040513d60208110156107b857600080fd5b81019080805190602001909291905050506040518363ffffffff1660e01b8152600401808373ffffffffffffffffffffffffffffffffffffffff1673ffffffffffffffffffffffffffffffffffffffff16815260200182815260200192505050600060405180830381600087803b15801561083257600080fd5b505af1158015610846573d6000803e3d6000fd5b50505050565b600360009054906101000a900473ffffffffffffffffffffffffffffffffffffffff1681565b600160009054906101000a900473ffffffffffffffffffffffffffffffffffffffff1673ffffffffffffffffffffffffffffffffffffffff163373ffffffffffffffffffffffffffffffffffffffff16148061091a57506000809054906101000a900473ffffffffffffffffffffffffffffffffffffffff1673ffffffffffffffffffffffffffffffffffffffff163373ffffffffffffffffffffffffffffffffffffffff16145b61096f576040517f08c379a00000000000000000000000000000000000000000000000000000000081526004018080602001828103825260238152602001806111276023913960400191505060405180910390fd5b600460009054906101000a900473ffffffffffffffffffffffffffffffffffffffff1673ffffffffffffffffffffffffffffffffffffffff1663a69beaba826040518263ffffffff1660e01b815260040180828152602001915050600060405180830381600087803b1580156109e457600080fd5b505af11580156109f8573d6000803e3d6000fd5b5050505050565b60055481565b600160009054906101000a900473ffffffffffffffffffffffffffffffffffffffff1673ffffffffffffffffffffffffffffffffffffffff163373ffffffffffffffffffffffffffffffffffffffff161480610aad57506000809054906101000a900473ffffffffffffffffffffffffffffffffffffffff1673ffffffffffffffffffffffffffffffffffffffff163373ffffffffffffffffffffffffffffffffffffffff16145b610b02576040517f08c379a00000000000000000000000000000000000000000000000000000000081526004018080602001828103825260238152602001806111276023913960400191505060405180910390fd5b600460009054906101000a900473ffffffffffffffffffffffffffffffffffffffff1673ffffffffffffffffffffffffffffffffffffffff1663d8ccd0f3826040518263ffffffff1660e01b815260040180828152602001915050600060405180830381600087803b158015610b7757600080fd5b505af1158015610b8b573d6000803e3d6000fd5b50505050600260009054906101000a900473ffffffffffffffffffffffffffffffffffffffff1673ffffffffffffffffffffffffffffffffffffffff1663b753a98c6000809054906101000a900473ffffffffffffffffffffffffffffffffffffffff16836040518363ffffffff1660e01b8152600401808373ffffffffffffffffffffffffffffffffffffffff1673ffffffffffffffffffffffffffffffffffffffff16815260200182815260200192505050600060405180830381600087803b158015610c5957600080fd5b505af1158015610c6d573d6000803e3d6000fd5b5050505050565b600160009054906101000a900473ffffffffffffffffffffffffffffffffffffffff1673ffffffffffffffffffffffffffffffffffffffff163373ffffffffffffffffffffffffffffffffffffffff161480610d1c57506000809054906101000a900473ffffffffffffffffffffffffffffffffffffffff1673ffffffffffffffffffffffffffffffffffffffff163373ffffffffffffffffffffffffffffffffffffffff16145b610d71576040517f08c379a00000000000000000000000000000000000000000000000000000000081526004018080602001828103825260238152602001806111276023913960400191505060405180910390fd5b600260009054906101000a900473ffffffffffffffffffffffffffffffffffffffff1673ffffffffffffffffffffffffffffffffffffffff1663f2d5d56b6000809054906101000a900473ffffffffffffffffffffffffffffffffffffffff16836040518363ffffffff1660e01b8152600401808373ffffffffffffffffffffffffffffffffffffffff1673ffffffffffffffffffffffffffffffffffffffff16815260200182815260200192505050600060405180830381600087803b158015610e3b57600080fd5b505af1158015610e4f573d6000803e3d6000fd5b50505050600460009054906101000a900473ffffffffffffffffffffffffffffffffffffffff1673ffffffffffffffffffffffffffffffffffffffff1663dd467064826040518263ffffffff1660e01b815260040180828152602001915050600060405180830381600087803b158015610ec857600080fd5b505af1158015610edc573d6000803e3d6000fd5b5050505050565b600160009054906101000a900473ffffffffffffffffffffffffffffffffffffffff1681565b6000600160009054906101000a900473ffffffffffffffffffffffffffffffffffffffff1673ffffffffffffffffffffffffffffffffffffffff163373ffffffffffffffffffffffffffffffffffffffff161480610fb357506000809054906101000a900473ffffffffffffffffffffffffffffffffffffffff1673ffffffffffffffffffffffffffffffffffffffff163373ffffffffffffffffffffffffffffffffffffffff16145b611008576040517f08c379a00000000000000000000000000000000000000000000000000000000081526004018080602001828103825260238152602001806111276023913960400191505060405180910390fd5b600460009054906101000a900473ffffffffffffffffffffffffffffffffffffffff1673ffffffffffffffffffffffffffffffffffffffff1663ed081329836040518263ffffffff1660e01b81526004018080602001828103825283818151815260200191508051906020019060200280838360005b8381101561109957808201518184015260208101905061107e565b5050505090500192505050602060405180830381600087803b1580156110be57600080fd5b505af11580156110d2573d6000803e3d6000fd5b505050506040513d60208110156110e857600080fd5b81019080805190602001909291905050509050919050565b600460009054906101000a900473ffffffffffffffffffffffffffffffffffffffff168156fe53656e646572206d757374206265206120436f6c64206f7220486f742057616c6c6574a265627a7a72315820f75d26d34372ba842b77342c2db5d5f96f959287df476c36a61887835f5238a864736f6c63430005100032",
  "source": "/// VoteProxy.sol\n\n// Copyright (C) 2018-2020 Maker Ecosystem Growth Holdings, INC.\n\n// This program is free software: you can redistribute it and/or modify\n// it under the terms of the GNU Affero General Public License as published by\n// the Free Software Foundation, either version 3 of the License, or\n// (at your option) any later version.\n//\n// This program is distributed in the hope that it will be useful,\n// but WITHOUT ANY WARRANTY; without even the implied warranty of\n// MERCHANTABILITY or FITNESS FOR A PARTICULAR PURPOSE.  See the\n// GNU Affero General Public License for more details.\n//\n// You should have received a copy of the GNU Affero General Public License\n// along with this program.  If not, see <https://www.gnu.org/licenses/>.\n\n// vote w/ a hot or cold wallet using a proxy identity\npragma solidity >=0.4.24;\n\nimport \"./token.sol\";\nimport \"./chief.sol\";\n\ncontract VoteProxy {\n    address public cold;\n    address public hot;\n    DSToken public gov;\n    DSToken public iou;\n    DSChief public chief;\n    uint256 public secretHash;\n\n    constructor(DSChief _chief, address _cold, address _hot) public {\n        chief = _chief;\n        cold = _cold;\n        hot = _hot;\n\n        gov = chief.GOV();\n        iou = chief.IOU();\n        gov.approve(address(chief), uint256(-1));\n        iou.approve(address(chief), uint256(-1));\n    }\n\n    modifier auth() {\n        require(msg.sender == hot || msg.sender == cold, \"Sender must be a Cold or Hot Wallet\");\n        _;\n    }\n\n    function lock(uint256 wad) public auth {\n        gov.pull(cold, wad);   // mkr from cold\n        chief.lock(wad);       // mkr out, ious in\n    }\n\n    function free(uint256 wad) public auth {\n        chief.free(wad);       // ious out, mkr in\n        gov.push(cold, wad);   // mkr to cold\n    }\n\n    function freeAll() public auth {\n        chief.free(chief.deposits(address(this)));\n        gov.push(cold, gov.balanceOf(address(this)));\n    }\n\n    function vote(address[] memory yays) public auth returns (bytes32) {\n        return chief.vote(yays);\n    }\n\n    function vote(bytes32 slate) public auth {\n        chief.vote(slate);\n    }\n\n    function setSecret(uint256 _secretHash) public {\n        secretHash = _secretHash;\n    }\n}",
  "sourcePath": "/home/akash/Videos/Private-delegation-Maker-Governance/maker/contracts/VoteProxy.sol",
  "compiler": {
    "name": "solc",
    "version": "0.5.16+commit.9c3226ce.Emscripten.clang"
  },
  "schemaVersion": "3.0.23",
  "updatedAt": "2020-06-24T13:13:15.116Z",
  "devdoc": {
    "methods": {}
  },
  "userdoc": {
    "methods": {}
  }
}