{
  "contractName": "DSChief",
  "abi": [
    {
      "inputs": [
        {
          "internalType": "contract DSTokenGOV",
          "name": "GOV",
          "type": "address"
        },
        {
          "internalType": "contract DSTokenIOU",
          "name": "IOU",
          "type": "address"
        },
        {
          "internalType": "uint256",
          "name": "MAX_YAYS",
          "type": "uint256"
        }
      ],
      "payable": false,
      "stateMutability": "nonpayable",
      "type": "constructor"
    },
    {
      "anonymous": false,
      "inputs": [
        {
          "indexed": true,
          "internalType": "bytes32",
          "name": "slate",
          "type": "bytes32"
        }
      ],
      "name": "Etch",
      "type": "event"
    },
    {
      "anonymous": true,
      "inputs": [
        {
          "indexed": true,
          "internalType": "bytes4",
          "name": "sig",
          "type": "bytes4"
        },
        {
          "indexed": true,
          "internalType": "address",
          "name": "guy",
          "type": "address"
        },
        {
          "indexed": true,
          "internalType": "bytes32",
          "name": "foo",
          "type": "bytes32"
        },
        {
          "indexed": true,
          "internalType": "bytes32",
          "name": "bar",
          "type": "bytes32"
        },
        {
          "indexed": false,
          "internalType": "uint256",
          "name": "wad",
          "type": "uint256"
        },
        {
          "indexed": false,
          "internalType": "bytes",
          "name": "fax",
          "type": "bytes"
        }
      ],
      "name": "LogNote",
      "type": "event"
    },
    {
      "anonymous": false,
      "inputs": [
        {
          "indexed": true,
          "internalType": "address",
          "name": "authority",
          "type": "address"
        }
      ],
      "name": "LogSetAuthority",
      "type": "event"
    },
    {
      "anonymous": false,
      "inputs": [
        {
          "indexed": true,
          "internalType": "address",
          "name": "owner",
          "type": "address"
        }
      ],
      "name": "LogSetOwner",
      "type": "event"
    },
    {
      "constant": true,
      "inputs": [],
      "name": "GOV",
      "outputs": [
        {
          "internalType": "contract DSTokenGOV",
          "name": "",
          "type": "address"
        }
      ],
      "payable": false,
      "stateMutability": "view",
      "type": "function"
    },
    {
      "constant": true,
      "inputs": [],
      "name": "IOU",
      "outputs": [
        {
          "internalType": "contract DSTokenIOU",
          "name": "",
          "type": "address"
        }
      ],
      "payable": false,
      "stateMutability": "view",
      "type": "function"
    },
    {
      "constant": true,
      "inputs": [],
      "name": "MAX_YAYS",
      "outputs": [
        {
          "internalType": "uint256",
          "name": "",
          "type": "uint256"
        }
      ],
      "payable": false,
      "stateMutability": "view",
      "type": "function"
    },
    {
      "constant": true,
      "inputs": [
        {
          "internalType": "address",
          "name": "",
          "type": "address"
        }
      ],
      "name": "approvals",
      "outputs": [
        {
          "internalType": "uint256",
          "name": "",
          "type": "uint256"
        }
      ],
      "payable": false,
      "stateMutability": "view",
      "type": "function"
    },
    {
      "constant": true,
      "inputs": [],
      "name": "authority",
      "outputs": [
        {
          "internalType": "contract DSAuthority",
          "name": "",
          "type": "address"
        }
      ],
      "payable": false,
      "stateMutability": "view",
      "type": "function"
    },
    {
      "constant": true,
      "inputs": [
        {
          "internalType": "address",
          "name": "caller",
          "type": "address"
        },
        {
          "internalType": "address",
          "name": "code",
          "type": "address"
        },
        {
          "internalType": "bytes4",
          "name": "sig",
          "type": "bytes4"
        }
      ],
      "name": "canCall",
      "outputs": [
        {
          "internalType": "bool",
          "name": "",
          "type": "bool"
        }
      ],
      "payable": false,
      "stateMutability": "view",
      "type": "function"
    },
    {
      "constant": true,
      "inputs": [
        {
          "internalType": "address",
          "name": "voteProxy",
          "type": "address"
        },
        {
          "internalType": "uint256",
          "name": "input1",
          "type": "uint256"
        },
        {
          "internalType": "uint256",
          "name": "input2",
          "type": "uint256"
        }
      ],
      "name": "checkInput",
      "outputs": [
        {
          "internalType": "bool",
          "name": "",
          "type": "bool"
        }
      ],
      "payable": false,
      "stateMutability": "view",
      "type": "function"
    },
    {
      "constant": false,
      "inputs": [
        {
          "internalType": "bytes32",
          "name": "slate",
          "type": "bytes32"
        },
        {
          "internalType": "address",
          "name": "voteProxy",
          "type": "address"
        },
        {
          "internalType": "uint256[2]",
          "name": "a",
          "type": "uint256[2]"
        },
        {
          "internalType": "uint256[2][2]",
          "name": "b",
          "type": "uint256[2][2]"
        },
        {
          "internalType": "uint256[2]",
          "name": "c",
          "type": "uint256[2]"
        },
        {
          "internalType": "uint256[3]",
          "name": "input",
          "type": "uint256[3]"
        }
      ],
      "name": "delegateVote",
      "outputs": [],
      "payable": false,
      "stateMutability": "nonpayable",
      "type": "function"
    },
    {
      "constant": false,
      "inputs": [
        {
          "internalType": "address[]",
          "name": "yays",
          "type": "address[]"
        },
        {
          "internalType": "address",
          "name": "voteProxy",
          "type": "address"
        },
        {
          "internalType": "uint256[2]",
          "name": "a",
          "type": "uint256[2]"
        },
        {
          "internalType": "uint256[2][2]",
          "name": "b",
          "type": "uint256[2][2]"
        },
        {
          "internalType": "uint256[2]",
          "name": "c",
          "type": "uint256[2]"
        },
        {
          "internalType": "uint256[3]",
          "name": "input",
          "type": "uint256[3]"
        }
      ],
      "name": "delegateVote",
      "outputs": [
        {
          "internalType": "bytes32",
          "name": "",
          "type": "bytes32"
        }
      ],
      "payable": false,
      "stateMutability": "nonpayable",
      "type": "function"
    },
    {
      "constant": true,
      "inputs": [
        {
          "internalType": "address",
          "name": "",
          "type": "address"
        }
      ],
      "name": "deposits",
      "outputs": [
        {
          "internalType": "uint256",
          "name": "",
          "type": "uint256"
        }
      ],
      "payable": false,
      "stateMutability": "view",
      "type": "function"
    },
    {
      "constant": false,
      "inputs": [
        {
          "internalType": "address[]",
          "name": "yays",
          "type": "address[]"
        }
      ],
      "name": "etch",
      "outputs": [
        {
          "internalType": "bytes32",
          "name": "slate",
          "type": "bytes32"
        }
      ],
      "payable": false,
      "stateMutability": "nonpayable",
      "type": "function"
    },
    {
      "constant": false,
      "inputs": [
        {
          "internalType": "uint256",
          "name": "wad",
          "type": "uint256"
        }
      ],
      "name": "free",
      "outputs": [],
      "payable": false,
      "stateMutability": "nonpayable",
      "type": "function"
    },
    {
      "constant": true,
      "inputs": [
        {
          "internalType": "address",
          "name": "code",
          "type": "address"
        },
        {
          "internalType": "bytes4",
          "name": "sig",
          "type": "bytes4"
        }
      ],
      "name": "getCapabilityRoles",
      "outputs": [
        {
          "internalType": "bytes32",
          "name": "",
          "type": "bytes32"
        }
      ],
      "payable": false,
      "stateMutability": "view",
      "type": "function"
    },
    {
      "constant": true,
      "inputs": [
        {
          "internalType": "address",
          "name": "who",
          "type": "address"
        }
      ],
      "name": "getUserRoles",
      "outputs": [
        {
          "internalType": "bytes32",
          "name": "",
          "type": "bytes32"
        }
      ],
      "payable": false,
      "stateMutability": "view",
      "type": "function"
    },
    {
      "constant": true,
      "inputs": [
        {
          "internalType": "address",
          "name": "who",
          "type": "address"
        },
        {
          "internalType": "uint8",
          "name": "role",
          "type": "uint8"
        }
      ],
      "name": "hasUserRole",
      "outputs": [
        {
          "internalType": "bool",
          "name": "",
          "type": "bool"
        }
      ],
      "payable": false,
      "stateMutability": "view",
      "type": "function"
    },
    {
      "constant": true,
      "inputs": [],
      "name": "hat",
      "outputs": [
        {
          "internalType": "address",
          "name": "",
          "type": "address"
        }
      ],
      "payable": false,
      "stateMutability": "view",
      "type": "function"
    },
    {
      "constant": true,
      "inputs": [
        {
          "internalType": "address",
          "name": "code",
          "type": "address"
        },
        {
          "internalType": "bytes4",
          "name": "sig",
          "type": "bytes4"
        }
      ],
      "name": "isCapabilityPublic",
      "outputs": [
        {
          "internalType": "bool",
          "name": "",
          "type": "bool"
        }
      ],
      "payable": false,
      "stateMutability": "view",
      "type": "function"
    },
    {
      "constant": true,
      "inputs": [
        {
          "internalType": "address",
          "name": "who",
          "type": "address"
        }
      ],
      "name": "isUserRoot",
      "outputs": [
        {
          "internalType": "bool",
          "name": "",
          "type": "bool"
        }
      ],
      "payable": false,
      "stateMutability": "view",
      "type": "function"
    },
    {
      "constant": false,
      "inputs": [
        {
          "internalType": "address",
          "name": "whom",
          "type": "address"
        }
      ],
      "name": "lift",
      "outputs": [],
      "payable": false,
      "stateMutability": "nonpayable",
      "type": "function"
    },
    {
      "constant": false,
      "inputs": [
        {
          "internalType": "uint256",
          "name": "wad",
          "type": "uint256"
        }
      ],
      "name": "lock",
      "outputs": [],
      "payable": false,
      "stateMutability": "nonpayable",
      "type": "function"
    },
    {
      "constant": true,
      "inputs": [],
      "name": "owner",
      "outputs": [
        {
          "internalType": "address",
          "name": "",
          "type": "address"
        }
      ],
      "payable": false,
      "stateMutability": "view",
      "type": "function"
    },
    {
      "constant": true,
      "inputs": [
        {
          "internalType": "address",
          "name": "",
          "type": "address"
        }
      ],
      "name": "secretHash",
      "outputs": [
        {
          "internalType": "bytes32",
          "name": "",
          "type": "bytes32"
        }
      ],
      "payable": false,
      "stateMutability": "view",
      "type": "function"
    },
    {
      "constant": false,
      "inputs": [
        {
          "internalType": "contract DSAuthority",
          "name": "authority_",
          "type": "address"
        }
      ],
      "name": "setAuthority",
      "outputs": [],
      "payable": false,
      "stateMutability": "nonpayable",
      "type": "function"
    },
    {
      "constant": false,
      "inputs": [
        {
          "internalType": "address",
          "name": "owner_",
          "type": "address"
        }
      ],
      "name": "setOwner",
      "outputs": [],
      "payable": false,
      "stateMutability": "nonpayable",
      "type": "function"
    },
    {
      "constant": false,
      "inputs": [
        {
          "internalType": "address",
          "name": "code",
          "type": "address"
        },
        {
          "internalType": "bytes4",
          "name": "sig",
          "type": "bytes4"
        },
        {
          "internalType": "bool",
          "name": "enabled",
          "type": "bool"
        }
      ],
      "name": "setPublicCapability",
      "outputs": [],
      "payable": false,
      "stateMutability": "nonpayable",
      "type": "function"
    },
    {
      "constant": false,
      "inputs": [
        {
          "internalType": "uint8",
          "name": "role",
          "type": "uint8"
        },
        {
          "internalType": "address",
          "name": "code",
          "type": "address"
        },
        {
          "internalType": "bytes4",
          "name": "sig",
          "type": "bytes4"
        },
        {
          "internalType": "bool",
          "name": "enabled",
          "type": "bool"
        }
      ],
      "name": "setRoleCapability",
      "outputs": [],
      "payable": false,
      "stateMutability": "nonpayable",
      "type": "function"
    },
    {
      "constant": false,
      "inputs": [
        {
          "internalType": "address",
          "name": "who",
          "type": "address"
        },
        {
          "internalType": "bool",
          "name": "enabled",
          "type": "bool"
        }
      ],
      "name": "setRootUser",
      "outputs": [],
      "payable": false,
      "stateMutability": "nonpayable",
      "type": "function"
    },
    {
      "constant": false,
      "inputs": [
        {
          "internalType": "bytes32",
          "name": "_secretHash",
          "type": "bytes32"
        }
      ],
      "name": "setSecretHash",
      "outputs": [],
      "payable": false,
      "stateMutability": "nonpayable",
      "type": "function"
    },
    {
      "constant": false,
      "inputs": [
        {
          "internalType": "address",
          "name": "who",
          "type": "address"
        },
        {
          "internalType": "uint8",
          "name": "role",
          "type": "uint8"
        },
        {
          "internalType": "bool",
          "name": "enabled",
          "type": "bool"
        }
      ],
      "name": "setUserRole",
      "outputs": [],
      "payable": false,
      "stateMutability": "nonpayable",
      "type": "function"
    },
    {
      "constant": false,
      "inputs": [
        {
          "internalType": "address",
          "name": "_verifierAddress",
          "type": "address"
        }
      ],
      "name": "setVerifier",
      "outputs": [],
      "payable": false,
      "stateMutability": "nonpayable",
      "type": "function"
    },
    {
      "constant": true,
      "inputs": [
        {
          "internalType": "bytes32",
          "name": "",
          "type": "bytes32"
        },
        {
          "internalType": "uint256",
          "name": "",
          "type": "uint256"
        }
      ],
      "name": "slates",
      "outputs": [
        {
          "internalType": "address",
          "name": "",
          "type": "address"
        }
      ],
      "payable": false,
      "stateMutability": "view",
      "type": "function"
    },
    {
      "constant": true,
      "inputs": [],
      "name": "verifier",
      "outputs": [
        {
          "internalType": "contract SecretVerifier",
          "name": "",
          "type": "address"
        }
      ],
      "payable": false,
      "stateMutability": "view",
      "type": "function"
    },
    {
      "constant": true,
      "inputs": [],
      "name": "verifierAddress",
      "outputs": [
        {
          "internalType": "address",
          "name": "",
          "type": "address"
        }
      ],
      "payable": false,
      "stateMutability": "view",
      "type": "function"
    },
    {
      "constant": false,
      "inputs": [
        {
          "internalType": "bytes32",
          "name": "slate",
          "type": "bytes32"
        }
      ],
      "name": "vote",
      "outputs": [],
      "payable": false,
      "stateMutability": "nonpayable",
      "type": "function"
    },
    {
      "constant": false,
      "inputs": [
        {
          "internalType": "address[]",
          "name": "yays",
          "type": "address[]"
        }
      ],
      "name": "vote",
      "outputs": [
        {
          "internalType": "bytes32",
          "name": "",
          "type": "bytes32"
        }
      ],
      "payable": false,
      "stateMutability": "nonpayable",
      "type": "function"
    },
    {
      "constant": true,
      "inputs": [
        {
          "internalType": "address",
          "name": "",
          "type": "address"
        }
      ],
      "name": "votes",
      "outputs": [
        {
          "internalType": "bytes32",
          "name": "",
          "type": "bytes32"
        }
      ],
      "payable": false,
      "stateMutability": "view",
      "type": "function"
    }
  ],
  "bytecode": "0x608060405234801561001057600080fd5b50604051613bbf380380613bbf8339818101604052606081101561003357600080fd5b8101908080519060200190929190805190602001909291908051906020019092919050505082828233600160006101000a81548173ffffffffffffffffffffffffffffffffffffffff021916908373ffffffffffffffffffffffffffffffffffffffff1602179055503373ffffffffffffffffffffffffffffffffffffffff167fce241d7ca1f669fee44b6fc00b8eba2df3bb514eed0f6f668f8f89096e81ed9460405160405180910390a282600c60006101000a81548173ffffffffffffffffffffffffffffffffffffffff021916908373ffffffffffffffffffffffffffffffffffffffff16021790555081600d60006101000a81548173ffffffffffffffffffffffffffffffffffffffff021916908373ffffffffffffffffffffffffffffffffffffffff16021790555080601081905550505050306000806101000a81548173ffffffffffffffffffffffffffffffffffffffff021916908373ffffffffffffffffffffffffffffffffffffffff1602179055506000600160006101000a81548173ffffffffffffffffffffffffffffffffffffffff021916908373ffffffffffffffffffffffffffffffffffffffff1602179055505050506139c0806101ff6000396000f3fe608060405234801561001057600080fd5b506004361061021c5760003560e01c80637a9e5e4b11610125578063c6b0263e116100ad578063dd4670641161007c578063dd4670641461101d578063ed0813291461104b578063fbf8077314611117578063fc7e286d14611173578063fe95a5ce146111cb5761021c565b8063c6b0263e14610ece578063d381ba7c14610f47578063d8bff5a514610f97578063d8ccd0f314610fef5761021c565b8063a69beaba116100f4578063a69beaba14610b10578063b1a116c614610b3e578063b700961314610d67578063bf7e214f14610e0c578063c2ffc7bb14610e565761021c565b80637a9e5e4b146109935780637d40583d146109d75780638da5cb5b14610a5d578063a078f73714610aa75761021c565b80632f47571f116101a85780635437988d116101775780635437988d146108145780635d0341ba1461085857806367aff484146108b05780636ac2da191461090d578063733b0fb4146109655761021c565b80632f47571f14610661578063362344b8146106e65780633c278bd5146107045780635123e1fa146107485761021c565b8063180cb47f116101ef578063180cb47f1461037757806318bdffbb146103c157806327538e901461040b578063289ebfeb1461048c5780632b7ac3f3146106175761021c565b8063046c472f1461022157806306a36aee1461026b5780630c41d758146102c357806313af403514610333575b600080fd5b610229611215565b604051808273ffffffffffffffffffffffffffffffffffffffff1673ffffffffffffffffffffffffffffffffffffffff16815260200191505060405180910390f35b6102ad6004803603602081101561028157600080fd5b81019080803573ffffffffffffffffffffffffffffffffffffffff16906020019092919050505061123b565b6040518082815260200191505060405180910390f35b610319600480360360608110156102d957600080fd5b81019080803573ffffffffffffffffffffffffffffffffffffffff1690602001909291908035906020019092919080359060200190929190505050611284565b604051808215151515815260200191505060405180910390f35b6103756004803603602081101561034957600080fd5b81019080803573ffffffffffffffffffffffffffffffffffffffff169060200190929190505050611307565b005b61037f611450565b604051808273ffffffffffffffffffffffffffffffffffffffff1673ffffffffffffffffffffffffffffffffffffffff16815260200191505060405180910390f35b6103c9611476565b604051808273ffffffffffffffffffffffffffffffffffffffff1673ffffffffffffffffffffffffffffffffffffffff16815260200191505060405180910390f35b6104766004803603604081101561042157600080fd5b81019080803573ffffffffffffffffffffffffffffffffffffffff16906020019092919080357bffffffffffffffffffffffffffffffffffffffffffffffffffffffff1916906020019092919050505061149c565b6040518082815260200191505060405180910390f35b61061560048036036101a08110156104a357600080fd5b8101908080359060200190929190803573ffffffffffffffffffffffffffffffffffffffff16906020019092919080604001906002806020026040519081016040528092919082600260200280828437600081840152601f19601f82011690508083019250505050505091929192908060800190600280602002604051908101604052809291906000905b82821015610582578382604002016002806020026040519081016040528092919082600260200280828437600081840152601f19601f8201169050808301925050505050508152602001906001019061052e565b50505050919291929080604001906002806020026040519081016040528092919082600260200280828437600081840152601f19601f820116905080830192505050505050919291929080606001906003806020026040519081016040528092919082600360200280828437600081840152601f19601f8201169050808301925050505050509192919290505050611535565b005b61061f611a4d565b604051808273ffffffffffffffffffffffffffffffffffffffff1673ffffffffffffffffffffffffffffffffffffffff16815260200191505060405180910390f35b6106cc6004803603604081101561067757600080fd5b81019080803573ffffffffffffffffffffffffffffffffffffffff16906020019092919080357bffffffffffffffffffffffffffffffffffffffffffffffffffffffff19169060200190929190505050611a73565b604051808215151515815260200191505060405180910390f35b6106ee611b19565b6040518082815260200191505060405180910390f35b6107466004803603602081101561071a57600080fd5b81019080803573ffffffffffffffffffffffffffffffffffffffff169060200190929190505050611b1f565b005b6107fe6004803603602081101561075e57600080fd5b810190808035906020019064010000000081111561077b57600080fd5b82018360208201111561078d57600080fd5b803590602001918460208302840111640100000000831117156107af57600080fd5b919080806020026020016040519081016040528093929190818152602001838360200280828437600081840152601f19601f820116905080830192505050505050509192919290505050611ccc565b6040518082815260200191505060405180910390f35b6108566004803603602081101561082a57600080fd5b81019080803573ffffffffffffffffffffffffffffffffffffffff169060200190929190505050611e59565b005b61089a6004803603602081101561086e57600080fd5b81019080803573ffffffffffffffffffffffffffffffffffffffff169060200190929190505050611f00565b6040518082815260200191505060405180910390f35b61090b600480360360608110156108c657600080fd5b81019080803573ffffffffffffffffffffffffffffffffffffffff169060200190929190803560ff169060200190929190803515159060200190929190505050611f18565b005b61094f6004803603602081101561092357600080fd5b81019080803573ffffffffffffffffffffffffffffffffffffffff1690602001909291905050506120b1565b6040518082815260200191505060405180910390f35b6109916004803603602081101561097b57600080fd5b81019080803590602001909291905050506120c9565b005b6109d5600480360360208110156109a957600080fd5b81019080803573ffffffffffffffffffffffffffffffffffffffff169060200190929190505050612110565b005b610a5b600480360360808110156109ed57600080fd5b81019080803560ff169060200190929190803573ffffffffffffffffffffffffffffffffffffffff16906020019092919080357bffffffffffffffffffffffffffffffffffffffffffffffffffffffff19169060200190929190803515159060200190929190505050612257565b005b610a656124de565b604051808273ffffffffffffffffffffffffffffffffffffffff1673ffffffffffffffffffffffffffffffffffffffff16815260200191505060405180910390f35b610af660048036036040811015610abd57600080fd5b81019080803573ffffffffffffffffffffffffffffffffffffffff169060200190929190803560ff169060200190929190505050612504565b604051808215151515815260200191505060405180910390f35b610b3c60048036036020811015610b2657600080fd5b8101908080359060200190929190505050612533565b005b610d5160048036036101a0811015610b5557600080fd5b8101908080359060200190640100000000811115610b7257600080fd5b820183602082011115610b8457600080fd5b80359060200191846020830284011164010000000083111715610ba657600080fd5b919080806020026020016040519081016040528093929190818152602001838360200280828437600081840152601f19601f820116905080830192505050505050509192919290803573ffffffffffffffffffffffffffffffffffffffff16906020019092919080604001906002806020026040519081016040528092919082600260200280828437600081840152601f19601f82011690508083019250505050505091929192908060800190600280602002604051908101604052809291906000905b82821015610cbe578382604002016002806020026040519081016040528092919082600260200280828437600081840152601f19601f82011690508083019250505050505081526020019060010190610c6a565b50505050919291929080604001906002806020026040519081016040528092919082600260200280828437600081840152601f19601f820116905080830192505050505050919291929080606001906003806020026040519081016040528092919082600360200280828437600081840152601f19601f82011690508083019250505050505091929192905050506127c7565b6040518082815260200191505060405180910390f35b610df260048036036060811015610d7d57600080fd5b81019080803573ffffffffffffffffffffffffffffffffffffffff169060200190929190803573ffffffffffffffffffffffffffffffffffffffff16906020019092919080357bffffffffffffffffffffffffffffffffffffffffffffffffffffffff191690602001909291905050506127f1565b604051808215151515815260200191505060405180910390f35b610e1461284b565b604051808273ffffffffffffffffffffffffffffffffffffffff1673ffffffffffffffffffffffffffffffffffffffff16815260200191505060405180910390f35b610e8c60048036036040811015610e6c57600080fd5b810190808035906020019092919080359060200190929190505050612870565b604051808273ffffffffffffffffffffffffffffffffffffffff1673ffffffffffffffffffffffffffffffffffffffff16815260200191505060405180910390f35b610f4560048036036060811015610ee457600080fd5b81019080803573ffffffffffffffffffffffffffffffffffffffff16906020019092919080357bffffffffffffffffffffffffffffffffffffffffffffffffffffffff191690602001909291908035151590602001909291905050506128bb565b005b610f9560048036036040811015610f5d57600080fd5b81019080803573ffffffffffffffffffffffffffffffffffffffff169060200190929190803515159060200190929190505050612a06565b005b610fd960048036036020811015610fad57600080fd5b81019080803573ffffffffffffffffffffffffffffffffffffffff169060200190929190505050612b01565b6040518082815260200191505060405180910390f35b61101b6004803603602081101561100557600080fd5b8101908080359060200190929190505050612b19565b005b6110496004803603602081101561103357600080fd5b8101908080359060200190929190505050612e30565b005b6111016004803603602081101561106157600080fd5b810190808035906020019064010000000081111561107e57600080fd5b82018360208201111561109057600080fd5b803590602001918460208302840111640100000000831117156110b257600080fd5b919080806020026020016040519081016040528093929190818152602001838360200280828437600081840152601f19601f820116905080830192505050505050509192919290505050613147565b6040518082815260200191505060405180910390f35b6111596004803603602081101561112d57600080fd5b81019080803573ffffffffffffffffffffffffffffffffffffffff169060200190929190505050613167565b604051808215151515815260200191505060405180910390f35b6111b56004803603602081101561118957600080fd5b81019080803573ffffffffffffffffffffffffffffffffffffffff1690602001909291905050506131bd565b6040518082815260200191505060405180910390f35b6111d36131d5565b604051808273ffffffffffffffffffffffffffffffffffffffff1673ffffffffffffffffffffffffffffffffffffffff16815260200191505060405180910390f35b600d60009054906101000a900473ffffffffffffffffffffffffffffffffffffffff1681565b6000600360008373ffffffffffffffffffffffffffffffffffffffff1673ffffffffffffffffffffffffffffffffffffffff168152602001908152602001600020549050919050565b6000807001000000000000000000000000000000008402905060008382179050600a60008773ffffffffffffffffffffffffffffffffffffffff1673ffffffffffffffffffffffffffffffffffffffff168152602001908152602001600020548160001b14156112f957600192505050611300565b6000925050505b9392505050565b611335336000357fffffffff00000000000000000000000000000000000000000000000000000000166131fb565b6113a7576040517f08c379a00000000000000000000000000000000000000000000000000000000081526004018080602001828103825260148152602001807f64732d617574682d756e617574686f72697a656400000000000000000000000081525060200191505060405180910390fd5b80600160006101000a81548173ffffffffffffffffffffffffffffffffffffffff021916908373ffffffffffffffffffffffffffffffffffffffff160217905550600160009054906101000a900473ffffffffffffffffffffffffffffffffffffffff1673ffffffffffffffffffffffffffffffffffffffff167fce241d7ca1f669fee44b6fc00b8eba2df3bb514eed0f6f668f8f89096e81ed9460405160405180910390a250565b600c60009054906101000a900473ffffffffffffffffffffffffffffffffffffffff1681565b600f60009054906101000a900473ffffffffffffffffffffffffffffffffffffffff1681565b6000600460008473ffffffffffffffffffffffffffffffffffffffff1673ffffffffffffffffffffffffffffffffffffffff1681526020019081526020016000206000837bffffffffffffffffffffffffffffffffffffffffffffffffffffffff19167bffffffffffffffffffffffffffffffffffffffffffffffffffffffff1916815260200190815260200160002054905092915050565b6000806000600435925060243591503490506000600660008b815260200190815260200160002080549050118061158e57507fc5d2460186f7233c927e7db2dcc703c0e500b653ca82273b7bfad8045d85a47060001b89145b611600576040517f08c379a00000000000000000000000000000000000000000000000000000000081526004018080602001828103825260168152602001807f64732d63686965662d696e76616c69642d736c6174650000000000000000000081525060200191505060405180910390fd5b61162d888560006003811061161157fe5b60200201518660016003811061162357fe5b6020020151611284565b611682576040517f08c379a000000000000000000000000000000000000000000000000000000000815260040180806020018281038252602d81526020018061395f602d913960400191505060405180910390fd5b600b60009054906101000a900473ffffffffffffffffffffffffffffffffffffffff1673ffffffffffffffffffffffffffffffffffffffff1663415df87c888888886040518563ffffffff1660e01b81526004018085600260200280838360005b838110156116fe5780820151818401526020810190506116e3565b505050509050018460026000925b818410156117525782846020020151600260200280838360005b83811015611741578082015181840152602081019050611726565b50505050905001926001019261170c565b9250505083600260200280838360005b8381101561177d578082015181840152602081019050611762565b5050505090500182600360200280838360005b838110156117ab578082015181840152602081019050611790565b50505050905001945050505050602060405180830381600087803b1580156117d257600080fd5b505af11580156117e6573d6000803e3d6000fd5b505050506040513d60208110156117fc57600080fd5b810190808051906020019092919050505061187f576040517f08c379a00000000000000000000000000000000000000000000000000000000081526004018080602001828103825260168152602001807f5468652070726f6f66206973206e6f742076616c69640000000000000000000081525060200191505060405180910390fd5b6000600960008a73ffffffffffffffffffffffffffffffffffffffff1673ffffffffffffffffffffffffffffffffffffffff16815260200190815260200160002054905061190c81600760008c73ffffffffffffffffffffffffffffffffffffffff1673ffffffffffffffffffffffffffffffffffffffff16815260200190815260200160002054613454565b89600760008b73ffffffffffffffffffffffffffffffffffffffff1673ffffffffffffffffffffffffffffffffffffffff1681526020019081526020016000208190555061199981600760008c73ffffffffffffffffffffffffffffffffffffffff1673ffffffffffffffffffffffffffffffffffffffff16815260200190815260200160002054613588565b5081833373ffffffffffffffffffffffffffffffffffffffff166000357fffffffff00000000000000000000000000000000000000000000000000000000167bffffffffffffffffffffffffffffffffffffffffffffffffffffffff19168460003660405180848152602001806020018281038252848482818152602001925080828437600081840152601f19601f82011690508083019250505094505050505060405180910390a4505050505050505050565b600b60009054906101000a900473ffffffffffffffffffffffffffffffffffffffff1681565b6000600560008473ffffffffffffffffffffffffffffffffffffffff1673ffffffffffffffffffffffffffffffffffffffff1681526020019081526020016000206000837bffffffffffffffffffffffffffffffffffffffffffffffffffffffff19167bffffffffffffffffffffffffffffffffffffffffffffffffffffffff1916815260200190815260200160002060009054906101000a900460ff16905092915050565b60105481565b60008060006004359250602435915034905060086000600e60009054906101000a900473ffffffffffffffffffffffffffffffffffffffff1673ffffffffffffffffffffffffffffffffffffffff1673ffffffffffffffffffffffffffffffffffffffff16815260200190815260200160002054600860008673ffffffffffffffffffffffffffffffffffffffff1673ffffffffffffffffffffffffffffffffffffffff1681526020019081526020016000205411611bdd57600080fd5b83600e60006101000a81548173ffffffffffffffffffffffffffffffffffffffff021916908373ffffffffffffffffffffffffffffffffffffffff16021790555081833373ffffffffffffffffffffffffffffffffffffffff166000357fffffffff00000000000000000000000000000000000000000000000000000000167bffffffffffffffffffffffffffffffffffffffffffffffffffffffff19168460003660405180848152602001806020018281038252848482818152602001925080828437600081840152601f19601f82011690508083019250505094505050505060405180910390a450505050565b6000806000806004359250602435915034905060105485511115611cef57600080fd5b611cf8856136bc565b60008560405160200180828051906020019060200280838360005b83811015611d2e578082015181840152602081019050611d13565b5050505090500191505060405160208183030381529060405280519060200120905085600660008381526020019081526020016000209080519060200190611d77929190613891565b50807f4f0892983790f53eea39a7a496f6cb40e8811b313871337b6a761efc6c67bb1f60405160405180910390a28094505081833373ffffffffffffffffffffffffffffffffffffffff166000357fffffffff00000000000000000000000000000000000000000000000000000000167bffffffffffffffffffffffffffffffffffffffffffffffffffffffff19168460003660405180848152602001806020018281038252848482818152602001925080828437600081840152601f19601f82011690508083019250505094505050505060405180910390a4505050919050565b80600f60006101000a81548173ffffffffffffffffffffffffffffffffffffffff021916908373ffffffffffffffffffffffffffffffffffffffff160217905550600f60009054906101000a900473ffffffffffffffffffffffffffffffffffffffff16600b60006101000a81548173ffffffffffffffffffffffffffffffffffffffff021916908373ffffffffffffffffffffffffffffffffffffffff16021790555050565b60086020528060005260406000206000915090505481565b611f46336000357fffffffff00000000000000000000000000000000000000000000000000000000166131fb565b611fb8576040517f08c379a00000000000000000000000000000000000000000000000000000000081526004018080602001828103825260148152602001807f64732d617574682d756e617574686f72697a656400000000000000000000000081525060200191505060405180910390fd5b6000600360008573ffffffffffffffffffffffffffffffffffffffff1673ffffffffffffffffffffffffffffffffffffffff16815260200190815260200160002054905060008360ff1660020a60001b9050821561205b57808217600360008773ffffffffffffffffffffffffffffffffffffffff1673ffffffffffffffffffffffffffffffffffffffff168152602001908152602001600020819055506120aa565b6120648161375c565b8216600360008773ffffffffffffffffffffffffffffffffffffffff1673ffffffffffffffffffffffffffffffffffffffff168152602001908152602001600020819055505b5050505050565b600a6020528060005260406000206000915090505481565b80600a60003373ffffffffffffffffffffffffffffffffffffffff1673ffffffffffffffffffffffffffffffffffffffff1681526020019081526020016000208190555050565b61213e336000357fffffffff00000000000000000000000000000000000000000000000000000000166131fb565b6121b0576040517f08c379a00000000000000000000000000000000000000000000000000000000081526004018080602001828103825260148152602001807f64732d617574682d756e617574686f72697a656400000000000000000000000081525060200191505060405180910390fd5b806000806101000a81548173ffffffffffffffffffffffffffffffffffffffff021916908373ffffffffffffffffffffffffffffffffffffffff1602179055506000809054906101000a900473ffffffffffffffffffffffffffffffffffffffff1673ffffffffffffffffffffffffffffffffffffffff167f1abebea81bfa2637f28358c371278fb15ede7ea8dd28d2e03b112ff6d936ada460405160405180910390a250565b612285336000357fffffffff00000000000000000000000000000000000000000000000000000000166131fb565b6122f7576040517f08c379a00000000000000000000000000000000000000000000000000000000081526004018080602001828103825260148152602001807f64732d617574682d756e617574686f72697a656400000000000000000000000081525060200191505060405180910390fd5b6000600460008573ffffffffffffffffffffffffffffffffffffffff1673ffffffffffffffffffffffffffffffffffffffff1681526020019081526020016000206000847bffffffffffffffffffffffffffffffffffffffffffffffffffffffff19167bffffffffffffffffffffffffffffffffffffffffffffffffffffffff1916815260200190815260200160002054905060008560ff1660020a60001b9050821561243857808217600460008773ffffffffffffffffffffffffffffffffffffffff1673ffffffffffffffffffffffffffffffffffffffff1681526020019081526020016000206000867bffffffffffffffffffffffffffffffffffffffffffffffffffffffff19167bffffffffffffffffffffffffffffffffffffffffffffffffffffffff19168152602001908152602001600020819055506124d6565b6124418161375c565b8216600460008773ffffffffffffffffffffffffffffffffffffffff1673ffffffffffffffffffffffffffffffffffffffff1681526020019081526020016000206000867bffffffffffffffffffffffffffffffffffffffffffffffffffffffff19167bffffffffffffffffffffffffffffffffffffffffffffffffffffffff19168152602001908152602001600020819055505b505050505050565b600160009054906101000a900473ffffffffffffffffffffffffffffffffffffffff1681565b6000806125108461123b565b905060008360ff1660020a60001b90508082166000801b14159250505092915050565b60008060006004359250602435915034905060006006600086815260200190815260200160002080549050118061258c57507fc5d2460186f7233c927e7db2dcc703c0e500b653ca82273b7bfad8045d85a47060001b84145b6125fe576040517f08c379a00000000000000000000000000000000000000000000000000000000081526004018080602001828103825260168152602001807f64732d63686965662d696e76616c69642d736c6174650000000000000000000081525060200191505060405180910390fd5b6000600960003373ffffffffffffffffffffffffffffffffffffffff1673ffffffffffffffffffffffffffffffffffffffff16815260200190815260200160002054905061268b81600760003373ffffffffffffffffffffffffffffffffffffffff1673ffffffffffffffffffffffffffffffffffffffff16815260200190815260200160002054613454565b84600760003373ffffffffffffffffffffffffffffffffffffffff1673ffffffffffffffffffffffffffffffffffffffff1681526020019081526020016000208190555061271881600760003373ffffffffffffffffffffffffffffffffffffffff1673ffffffffffffffffffffffffffffffffffffffff16815260200190815260200160002054613588565b5081833373ffffffffffffffffffffffffffffffffffffffff166000357fffffffff00000000000000000000000000000000000000000000000000000000167bffffffffffffffffffffffffffffffffffffffffffffffffffffffff19168460003660405180848152602001806020018281038252848482818152602001925080828437600081840152601f19601f82011690508083019250505094505050505060405180910390a450505050565b6000806127d388611ccc565b90506127e3818888888888611535565b809150509695505050505050565b60006127fc84613167565b8061280d575061280c8383611a73565b5b1561281b5760019050612844565b60006128268561123b565b90506000612834858561149c565b90508082166000801b1415925050505b9392505050565b6000809054906101000a900473ffffffffffffffffffffffffffffffffffffffff1681565b6006602052816000526040600020818154811061288957fe5b906000526020600020016000915091509054906101000a900473ffffffffffffffffffffffffffffffffffffffff1681565b6128e9336000357fffffffff00000000000000000000000000000000000000000000000000000000166131fb565b61295b576040517f08c379a00000000000000000000000000000000000000000000000000000000081526004018080602001828103825260148152602001807f64732d617574682d756e617574686f72697a656400000000000000000000000081525060200191505060405180910390fd5b80600560008573ffffffffffffffffffffffffffffffffffffffff1673ffffffffffffffffffffffffffffffffffffffff1681526020019081526020016000206000847bffffffffffffffffffffffffffffffffffffffffffffffffffffffff19167bffffffffffffffffffffffffffffffffffffffffffffffffffffffff1916815260200190815260200160002060006101000a81548160ff021916908315150217905550505050565b612a34336000357fffffffff00000000000000000000000000000000000000000000000000000000166131fb565b612aa6576040517f08c379a00000000000000000000000000000000000000000000000000000000081526004018080602001828103825260148152602001807f64732d617574682d756e617574686f72697a656400000000000000000000000081525060200191505060405180910390fd5b80600260008473ffffffffffffffffffffffffffffffffffffffff1673ffffffffffffffffffffffffffffffffffffffff16815260200190815260200160002060006101000a81548160ff0219169083151502179055505050565b60076020528060005260406000206000915090505481565b600080600060043592506024359150349050612b74600960003373ffffffffffffffffffffffffffffffffffffffff1673ffffffffffffffffffffffffffffffffffffffff168152602001908152602001600020548561378b565b600960003373ffffffffffffffffffffffffffffffffffffffff1673ffffffffffffffffffffffffffffffffffffffff16815260200190815260200160002081905550612c0084600760003373ffffffffffffffffffffffffffffffffffffffff1673ffffffffffffffffffffffffffffffffffffffff16815260200190815260200160002054613454565b600d60009054906101000a900473ffffffffffffffffffffffffffffffffffffffff1673ffffffffffffffffffffffffffffffffffffffff16639dc29fac33866040518363ffffffff1660e01b8152600401808373ffffffffffffffffffffffffffffffffffffffff1673ffffffffffffffffffffffffffffffffffffffff16815260200182815260200192505050600060405180830381600087803b158015612ca957600080fd5b505af1158015612cbd573d6000803e3d6000fd5b50505050600c60009054906101000a900473ffffffffffffffffffffffffffffffffffffffff1673ffffffffffffffffffffffffffffffffffffffff1663b753a98c33866040518363ffffffff1660e01b8152600401808373ffffffffffffffffffffffffffffffffffffffff1673ffffffffffffffffffffffffffffffffffffffff16815260200182815260200192505050600060405180830381600087803b158015612d6a57600080fd5b505af1158015612d7e573d6000803e3d6000fd5b5050505081833373ffffffffffffffffffffffffffffffffffffffff166000357fffffffff00000000000000000000000000000000000000000000000000000000167bffffffffffffffffffffffffffffffffffffffffffffffffffffffff19168460003660405180848152602001806020018281038252848482818152602001925080828437600081840152601f19601f82011690508083019250505094505050505060405180910390a450505050565b600080600060043592506024359150349050600c60009054906101000a900473ffffffffffffffffffffffffffffffffffffffff1673ffffffffffffffffffffffffffffffffffffffff1663f2d5d56b33866040518363ffffffff1660e01b8152600401808373ffffffffffffffffffffffffffffffffffffffff1673ffffffffffffffffffffffffffffffffffffffff16815260200182815260200192505050600060405180830381600087803b158015612eeb57600080fd5b505af1158015612eff573d6000803e3d6000fd5b50505050600d60009054906101000a900473ffffffffffffffffffffffffffffffffffffffff1673ffffffffffffffffffffffffffffffffffffffff166340c10f1933866040518363ffffffff1660e01b8152600401808373ffffffffffffffffffffffffffffffffffffffff1673ffffffffffffffffffffffffffffffffffffffff16815260200182815260200192505050600060405180830381600087803b158015612fac57600080fd5b505af1158015612fc0573d6000803e3d6000fd5b5050505061300d600960003373ffffffffffffffffffffffffffffffffffffffff1673ffffffffffffffffffffffffffffffffffffffff168152602001908152602001600020548561380e565b600960003373ffffffffffffffffffffffffffffffffffffffff1673ffffffffffffffffffffffffffffffffffffffff1681526020019081526020016000208190555061309984600760003373ffffffffffffffffffffffffffffffffffffffff1673ffffffffffffffffffffffffffffffffffffffff16815260200190815260200160002054613588565b81833373ffffffffffffffffffffffffffffffffffffffff166000357fffffffff00000000000000000000000000000000000000000000000000000000167bffffffffffffffffffffffffffffffffffffffffffffffffffffffff19168460003660405180848152602001806020018281038252848482818152602001925080828437600081840152601f19601f82011690508083019250505094505050505060405180910390a450505050565b60008061315383611ccc565b905061315e81612533565b80915050919050565b6000600260008373ffffffffffffffffffffffffffffffffffffffff1673ffffffffffffffffffffffffffffffffffffffff16815260200190815260200160002060009054906101000a900460ff169050919050565b60096020528060005260406000206000915090505481565b600e60009054906101000a900473ffffffffffffffffffffffffffffffffffffffff1681565b60003073ffffffffffffffffffffffffffffffffffffffff168373ffffffffffffffffffffffffffffffffffffffff16141561323a576001905061344e565b600160009054906101000a900473ffffffffffffffffffffffffffffffffffffffff1673ffffffffffffffffffffffffffffffffffffffff168373ffffffffffffffffffffffffffffffffffffffff161415613299576001905061344e565b600073ffffffffffffffffffffffffffffffffffffffff166000809054906101000a900473ffffffffffffffffffffffffffffffffffffffff1673ffffffffffffffffffffffffffffffffffffffff1614156132f8576000905061344e565b6000809054906101000a900473ffffffffffffffffffffffffffffffffffffffff1673ffffffffffffffffffffffffffffffffffffffff1663b70096138430856040518463ffffffff1660e01b8152600401808473ffffffffffffffffffffffffffffffffffffffff1673ffffffffffffffffffffffffffffffffffffffff1681526020018373ffffffffffffffffffffffffffffffffffffffff1673ffffffffffffffffffffffffffffffffffffffff168152602001827bffffffffffffffffffffffffffffffffffffffffffffffffffffffff19167bffffffffffffffffffffffffffffffffffffffffffffffffffffffff19168152602001935050505060206040518083038186803b15801561341057600080fd5b505afa158015613424573d6000803e3d6000fd5b505050506040513d602081101561343a57600080fd5b810190808051906020019092919050505090505b92915050565b600060066000838152602001908152602001600020905060008090505b8180549050811015613582576134fc6008600084848154811061349057fe5b9060005260206000200160009054906101000a900473ffffffffffffffffffffffffffffffffffffffff1673ffffffffffffffffffffffffffffffffffffffff1673ffffffffffffffffffffffffffffffffffffffff168152602001908152602001600020548561378b565b6008600084848154811061350c57fe5b9060005260206000200160009054906101000a900473ffffffffffffffffffffffffffffffffffffffff1673ffffffffffffffffffffffffffffffffffffffff1673ffffffffffffffffffffffffffffffffffffffff168152602001908152602001600020819055508080600101915050613471565b50505050565b600060066000838152602001908152602001600020905060008090505b81805490508110156136b657613630600860008484815481106135c457fe5b9060005260206000200160009054906101000a900473ffffffffffffffffffffffffffffffffffffffff1673ffffffffffffffffffffffffffffffffffffffff1673ffffffffffffffffffffffffffffffffffffffff168152602001908152602001600020548561380e565b6008600084848154811061364057fe5b9060005260206000200160009054906101000a900473ffffffffffffffffffffffffffffffffffffffff1673ffffffffffffffffffffffffffffffffffffffff1673ffffffffffffffffffffffffffffffffffffffff1681526020019081526020016000208190555080806001019150506135a5565b50505050565b6000815114806136cd575060018151145b156136d757613759565b60008090505b6001825103811015613757578160018201815181106136f857fe5b602002602001015173ffffffffffffffffffffffffffffffffffffffff1682828151811061372257fe5b602002602001015173ffffffffffffffffffffffffffffffffffffffff161061374a57600080fd5b80806001019150506136dd565b505b50565b60007fffffffffffffffffffffffffffffffffffffffffffffffffffffffffffffffff60001b82189050919050565b6000828284039150811115613808576040517f08c379a00000000000000000000000000000000000000000000000000000000081526004018080602001828103825260158152602001807f64732d6d6174682d7375622d756e646572666c6f77000000000000000000000081525060200191505060405180910390fd5b92915050565b600082828401915081101561388b576040517f08c379a00000000000000000000000000000000000000000000000000000000081526004018080602001828103825260148152602001807f64732d6d6174682d6164642d6f766572666c6f7700000000000000000000000081525060200191505060405180910390fd5b92915050565b82805482825590600052602060002090810192821561390a579160200282015b828111156139095782518260006101000a81548173ffffffffffffffffffffffffffffffffffffffff021916908373ffffffffffffffffffffffffffffffffffffffff160217905550916020019190600101906138b1565b5b509050613917919061391b565b5090565b61395b91905b8082111561395757600081816101000a81549073ffffffffffffffffffffffffffffffffffffffff021916905550600101613921565b5090565b9056fe5468652070726f6f6620646f65736e277420636f72726573706f6e6420746f207468652064656c656761746f72a265627a7a72315820d05d6a5d7f7347aae22d0138a6a860bfc66794739e0d74b70bb85a0c515e787864736f6c634300050c0032",
  "source": "// chief.sol - select an authority by consensus\n\n// Copyright (C) 2017  DappHub, LLC\n\n// This program is free software: you can redistribute it and/or modify\n// it under the terms of the GNU General Public License as published by\n// the Free Software Foundation, either version 3 of the License, or\n// (at your option) any later version.\n\n// This program is distributed in the hope that it will be useful,\n// but WITHOUT ANY WARRANTY; without even the implied warranty of\n// MERCHANTABILITY or FITNESS FOR A PARTICULAR PURPOSE.  See the\n// GNU General Public License for more details.\n\n// You should have received a copy of the GNU General Public License\n// along with this program.  If not, see <http://www.gnu.org/licenses/>.\n\npragma solidity >=0.4.23;\n\nimport './tokengov.sol';\nimport './tokeniou.sol';\nimport './roles.sol';\nimport './thing.sol';\nimport './secretVerifier.sol';\n\n// The right way to use this contract is probably to mix it with some kind\n// of `DSAuthority`, like with `ds-roles`.\n//   SEE DSChief\ncontract DSChiefApprovals is DSThing {\n    mapping(bytes32=>address[]) public slates;\n    mapping(address=>bytes32) public votes;\n    mapping(address=>uint256) public approvals;\n    mapping(address=>uint256) public deposits;\n    mapping(address=>bytes32) public secretHash;\n\n    SecretVerifier public verifier;\n    DSTokenGOV public GOV; // voting token that gets locked up\n    DSTokenIOU public IOU; // non-voting representation of a token, for e.g. secondary voting mechanisms\n    address public hat; // the chieftain's hat\n    address public verifierAddress;\n    uint256 public MAX_YAYS;\n\n    event Etch(bytes32 indexed slate);\n\n    // IOU constructed outside this contract reduces deployment costs significantly\n    // lock/free/vote are quite sensitive to token invariants. Caution is advised.\n    constructor(DSTokenGOV GOV_, DSTokenIOU IOU_, uint MAX_YAYS_) public\n    {\n        GOV = GOV_;\n        IOU = IOU_;\n        MAX_YAYS = MAX_YAYS_;\n    }\n\n    // function can be used to set the address of the Proof verifier Contract\n    function setVerifier(address _verifierAddress) public {\n        verifierAddress = _verifierAddress;\n        verifier = SecretVerifier(verifierAddress);\n    }\n\n    function setSecretHash(bytes32 _secretHash) public {\n        secretHash[msg.sender] = _secretHash;\n    }\n\n    function lock(uint wad)\n        public\n        note\n    {\n        GOV.pull(msg.sender, wad);\n        IOU.mint(msg.sender, wad);\n        deposits[msg.sender] = add(deposits[msg.sender], wad);\n        addWeight(wad, votes[msg.sender]);\n    }\n\n    function free(uint wad)\n        public\n        note\n    {\n        deposits[msg.sender] = sub(deposits[msg.sender], wad);\n        subWeight(wad, votes[msg.sender]);\n        IOU.burn(msg.sender, wad);\n        GOV.push(msg.sender, wad);\n    }\n\n    function etch(address[] memory yays)\n        public\n        note\n        returns (bytes32 slate)\n    {\n        require( yays.length <= MAX_YAYS );\n        requireByteOrderedSet(yays);\n        \n        bytes32 hash = keccak256(abi.encodePacked(yays));\n        slates[hash] = yays;\n        emit Etch(hash);\n        return hash;\n    }\n\n    function vote(address[] memory yays) public returns (bytes32)\n        // note  both sub-calls note\n    {\n        bytes32 slate = etch(yays);\n        vote(slate);\n        return slate;\n    }\n\n    function vote(bytes32 slate)\n        public\n        note\n    {\n        require(slates[slate].length > 0 ||\n            slate == 0xc5d2460186f7233c927e7db2dcc703c0e500b653ca82273b7bfad8045d85a470, \"ds-chief-invalid-slate\");\n        uint weight = deposits[msg.sender];\n        subWeight(weight, votes[msg.sender]);\n        votes[msg.sender] = slate;\n        addWeight(weight, votes[msg.sender]);\n    }\n\n    // function override, this vote function can be used by delegatee to vote on behalf of delegator\n    function delegateVote(address[] memory yays, address voteProxy, uint[2] memory a,\n            uint[2][2] memory b,\n            uint[2] memory c,\n            uint[3] memory input\n        ) public returns (bytes32)\n        // note  both sub-calls note\n    {\n\n        bytes32 slate = etch(yays);\n        delegateVote(slate, voteProxy, a, b, c, input);\n        return slate;\n    }\n    // function override. this function can be used by the delegatee to vote on behalf of delegator directly\n    // using slate\n    function delegateVote(bytes32 slate, address voteProxy, uint[2] memory a,\n            uint[2][2] memory b,\n            uint[2] memory c,\n            uint[3] memory input)\n        public\n        note\n    {\n        require(slates[slate].length > 0 ||\n            slate == 0xc5d2460186f7233c927e7db2dcc703c0e500b653ca82273b7bfad8045d85a470, \"ds-chief-invalid-slate\");\n        \n        require(checkInput(voteProxy, input[0], input[1]), \"The proof doesn't correspond to the delegator\");\n        require(verifier.verifyTx(a, b, c, input), \"The proof is not valid\");\n        uint weight = deposits[voteProxy];\n        subWeight(weight, votes[voteProxy]);\n        votes[voteProxy] = slate;\n        addWeight(weight, votes[voteProxy]);\n    }\n\n    // This function makes sure the proof is generated by the delegator itself. Not checking this might result\n    // in generation of fake proofs.\n    function checkInput(address voteProxy,uint input1, uint input2) public view returns (bool) {\n\n        uint a = input1 * 2**128;\n        uint c = a | input2;\n        if (bytes32(c)==secretHash[voteProxy]){\n            return true;\n        }\n        else{\n            return false;\n        }\n    }\n    // like `drop`/`swap` except simply \"elect this address if it is higher than current hat\"\n    function lift(address whom)\n        public\n        note\n    {\n        require(approvals[whom] > approvals[hat]);\n        hat = whom;\n    }\n\n    function addWeight(uint weight, bytes32 slate)\n        internal\n    {\n        address[] storage yays = slates[slate];\n        for( uint i = 0; i < yays.length; i++) {\n            approvals[yays[i]] = add(approvals[yays[i]], weight);\n        }\n    }\n\n    function subWeight(uint weight, bytes32 slate)\n        internal\n    {\n        address[] storage yays = slates[slate];\n        for( uint i = 0; i < yays.length; i++) {\n            approvals[yays[i]] = sub(approvals[yays[i]], weight);\n        }\n    }\n\n    // Throws unless the array of addresses is a ordered set.\n    function requireByteOrderedSet(address[] memory yays)\n        internal\n        pure\n    {\n        if( yays.length == 0 || yays.length == 1 ) {\n            return;\n        }\n        for( uint i = 0; i < yays.length - 1; i++ ) {\n            // strict inequality ensures both ordering and uniqueness\n            require(uint(yays[i]) < uint(yays[i+1]));\n        }\n    }\n}\n\n\n// `hat` address is unique root user (has every role) and the\n// unique owner of role 0 (typically 'sys' or 'internal')\ncontract DSChief is DSRoles, DSChiefApprovals {\n\n    constructor(DSTokenGOV GOV, DSTokenIOU IOU, uint MAX_YAYS)\n             DSChiefApprovals (GOV, IOU, MAX_YAYS)\n        public\n    {\n        authority = this;\n        owner = address(0);\n    }\n\n    // function setOwner(address owner_) public {\n    //     owner_;\n    //     revert();\n    // }\n\n    // function setAuthority(DSAuthority authority_) public {\n    //     authority_;\n    //     revert();\n    // }\n\n    // function isUserRoot(address who)\n    //     public view\n    //     returns (bool)\n    // {\n    //     return (who == hat);\n    // }\n    // function setRootUser(address who, bool enabled) public {\n    //     who; enabled;\n    //     revert();\n    // }\n}\n\n// contract DSChiefFab {\n//     function newChief(DSToken gov, uint MAX_YAYS) public returns (DSChief chief) {\n//         DSToken iou = new DSToken('IOU');\n//         chief = new DSChief(gov, iou, MAX_YAYS);\n//         iou.setOwner(address(chief));\n//     }\n",
  "sourcePath": "/home/saru/Blockchain/makerdao-priv-delegation/maker-gov/maker-ui/contracts/chief.sol",
  "compiler": {
    "name": "solc",
    "version": "0.5.12+commit.7709ece9.Emscripten.clang"
  },
  "schemaVersion": "3.0.20",
  "updatedAt": "2020-07-02T17:58:29.989Z",
  "networkType": "ethereum",
  "devdoc": {
    "methods": {}
  },
  "userdoc": {
    "methods": {}
  }
}